:100000000C94EB000C9413010C9413010C94130149
:100010000C9413010C9413010C9413010C94130110
:100020000C9413010C94F7070C9432030C94A40362
:100030000C9413010C9413010C9413010C941301F0
:100040000C9413010C9413010C9413010C941301E0
:100050000C9413010C9413010C9413010C94AD0730
:100060000C9413010C9413010C9413010C941301C0
:100070000C9413010C9413010C9413010C941301B0
:100080000C9413010C9413010C9413010C941301A0
:100090000C94A1080C9413010C9413010C941301FB
:1000A0000C9413010C9413010C941301F905FC0535
:1000B000EB05EF05F5051D061D061D0600060406E9
:1000C00008060E0612061D06180600000000230092
:1000D000260029002C002F0000000000240027002B
:1000E0002A002D003000080B000202020100090462
:1000F0000000010202000005240010010524010196
:1001000001042402060524060001070581031000EE
:100110004009040100020A00000007050202400035
:10012000000705830240000004030904426C696E65
:100130006B696E6C61627300426C696E6B795461BD
:100140007065001201000200000040501D5E60005A
:10015000010102030112010002EF020140501D5E85
:10016000600001010203010000000200090F00000D
:10017000030401000C00000000000000000000006B
:100180000000000000000408020110408040102020
:10019000408040800802040180402010020110804D
:1001A000102040402000000000250028002B002ED9
:1001B00000310004040404040304050202020204E2
:1001C00003020202020606060606060404020202F2
:1001D0000404310B210B11241FBECFEFDAE0DEBF88
:1001E000CDBF22E0AEE5B1E001C01D92A139B2075A
:1001F000E1F711E0A0E0B1E0ECE5F5E202C0059026
:100200000D92AE35B107D9F710E0CAEED0E004C0C8
:100210002197FE010E94A10EC93ED107C9F70E9495
:10022000BB0B0C94A1120C9400004091DD01509185
:10023000DE012091DB013091DC0142175307B4F459
:100240009091E8009570E1F39091E80092FD19C05B
:100250008093F1008091DD019091DE0101968F7312
:100260009927892B19F48EEF8093E8008091DD01A6
:100270009091DE0101969093DE018093DD0181E093
:10028000089580E00895CF92DF92EF92FF920F934E
:100290001F93CF93DF931F92CDB7DEB7182F062F92
:1002A000E42E862F880F8E5F99830E94150183E0CC
:1002B0000E941501F12EC12E9981D92E8C2D8F19F6
:1002C000801798F4F601E7FE02C0849101C0808196
:1002D0000E941501182F80E00E9415018123FFEF75
:1002E000CF1ADF0A8111EACF01C081E00F90DF91C0
:1002F000CF911F910F91FF90EF90DF90CF900895D5
:10030000DF92EF92FF920F931F93CF93DF93D82E3C
:100310008A017B01E40EF51EEB01CE15DF0571F0BD
:10032000D7FE03C0FE01849101C088810E9415019F
:1003300021968111F2CF8FEF9FEF01C0C801DF91AD
:10034000CF911F910F91FF90EF90DF900895615032
:1003500030F02091F100FC0120830196F8CF28981D
:1003600084E680930D020895CF92DF92EF92FF9280
:100370000F931F93CF93DF936C017A018B01C0E041
:10038000D0E0CE15DF0589F0D8016D918D01D60141
:10039000ED91FC910190F081E02DC6010995892B2A
:1003A00011F47E0102C02196ECCFC701DF91CF91FD
:1003B0001F910F91FF90EF90DF90CF900895CF9312
:1003C000DF931F92CDB7DEB76983DC01ED91FC911D
:1003D0000280F381E02D41E050E0BE016F5F7F4F6E
:1003E00009950F90DF91CF91089583E08093E90004
:1003F0008091F200882319F08AE38093E800089541
:10040000FC018485958597FD0BC09FB7F89482E029
:100410008093E9008091F2009FBF90E001960895DB
:100420009FB7F89482E08093E9008091F2009FBF2B
:1004300090E0089585ED8093BC008091BC0084FD20
:10044000FCCF1092AB01089540918501262F30E03A
:10045000240F311D21323105DCF42091AB01243011
:10046000C9F4FC0180E090E0861758F430918501D2
:100470002191DC01AD59BE4FA30FB11D2C93019604
:10048000F3CF80918501680F6093850180E0089526
:1004900081E0089582E0089508958FEF9FEF089519
:1004A0008FEF9FEF08958091620190E09195819583
:1004B00091090895CF93DF9300D0CDB7DEB7CB017C
:1004C000642F49835A830E9424024981842F5A81D0
:1004D000952F0F900F90DF91CF910895CF93DF93D9
:1004E0001F92CDB7DEB7698361E0CE0101960E940D
:1004F000240281E090E00F90DF91CF9108950E9457
:10050000DD110F931F93CF93DF931F92CDB7DEB70B
:1005100082E0898342E450E066EE70E080E80E9469
:1005200080010E940D0BDC0112960D911C91139716
:100530000115110569F0D801ED91FC910280F3815C
:10054000E02DBE016F5F7F4FC801099597FF07C07F
:1005500089810F90DF91CF911F910F910895F8013C
:1005600000851185E5CFCF93DF931F92CDB7DEB71E
:10057000FC018485958597FD05C02FEF3FEF3587FA
:1005800024870BC0CE0101960E94E30A019719F45B
:10059000898190E002C08FEF9FEF0F90DF91CF91A4
:1005A00008950F931F93CF93DF931F92CDB7DEB7BC
:1005B0008C01FC018485958597FF0EC0CE010196C4
:1005C0000E94E30A019719F4298130E002C02FEF5D
:1005D0003FEFF80135872487F801848595850F90D2
:1005E000DF91CF911F910F910895CF92DF92EF92FB
:1005F000FF920F931F93CF93DF9300D000D0CDB71E
:10060000DEB76217730784079507FCF489019A0126
:100610006B017C01A9019801261B370B480B590B74
:1006200069F029833A834B835C830E9430122981CD
:100630003A814B815C810E943E1203C060E070E011
:10064000CB016C0D7D1D8E1D9F1D0F900F900F9087
:100650000F90DF91CF911F910F91FF90EF90DF905E
:10066000CF9008951F920F920FB60F9211248F937F
:100670009F938091E1009091E100937F9093E1003E
:1006800083FF0FC01092E90091E09093EB0010926D
:10069000EC0092E39093ED0010920E0298E090939C
:1006A000F00082FF20C093E09093E9009091F20067
:1006B000992319F09AE39093E8009091DF01992330
:1006C00039F09091DF0191509093DF01992389F1E6
:1006D00090910D02992339F090910D0291509093D1
:1006E0000D02992341F184FF10C08091E2008E7EBB
:1006F00081608093E2008091E1008F7E8093E10031
:100700008091E1018E7E806111C080FF16C08091D2
:10071000E2008E7E80618093E2008091E1008E7E17
:100720008093E1008091E1018E7E81608093E10100
:1007300004C05D9ACDCF289AD6CF9F918F910F900C
:100740000FBE0F901F9018951F920F920FB60F9229
:100750001124CF92DF92EF92FF920F931F932F936A
:100760003F934F935F936F937F938F939F93AF9339
:10077000BF93EF93FF93CF93DF93CDB7DEB76C9723
:10078000DEBFCDBF1092E9008091E80083FFFAC17F
:1007900068E0CE0145960E94A70182EF8093E800B1
:1007A0008D8987FF05C09091E80090FFFCCF03C0C2
:1007B0009EEF9093E800982F907609F0C6C09E892E
:1007C0002F89188D91110CC0803829F48091E20195
:1007D0008093F10002C01092F1001092F10047C125
:1007E000422F50E0512B913051F4811140C14130E2
:1007F000510509F03CC18091E2018D7F0BC093301F
:1008000061F4811134C14130510509F030C180914A
:10081000E20182608093E2012AC1953041F4809127
:10082000E80080FFFCCF20682093E30020C19630D1
:1008300009F05FC0EB8CFC8C1092E9001092DE0195
:100840001092DD01123091F51092DC011092DB0163
:100850000E94810299E0BE016F5F7F4FDB01E92FAB
:100860001D92EA95E9F799831A8391E09E8390EAB5
:1008700098879AEF99872091DD013091DE01275FFB
:100880003F4F3C832B838D831092E9001092DE0151
:100890001092DD01F092DC01E092DB0149E050E0D2
:1008A00080E00E9480010E948102E1C0F092DC01A0
:1008B000E092DB010E940D0BDC011296ED90FC90A2
:1008C0001397E114F10409F4C0C0D701ED91FC9134
:1008D0000480F581E02DBE016B5E7F4FC701099555
:1008E000009719F00CF0C3C0C6C0F701E084F18492
:1008F000E8CF973009F4BFC0983021F481E08093AD
:10090000F100B5C0993009F0B2C0837009F0B3C0EE
:10091000E7E1F1E081E021E036E39081992361F0A5
:100920008093E9002093EB0091919093EC00309339
:10093000ED008F5F873089F78EE78093EA00109291
:10094000EA008F8980930E0292C08B8D9C8D10924D
:10095000E9001092DE011092DD019093DC0180939A
:10096000DB01898D811156C08E899D89913A59F498
:10097000813209F080C047E050E064E071E080E03F
:100980000E94800174C0913209F075C0833289F4ED
:10099000888D90E0982F88272F89822BA0E0B0E0E7
:1009A0008093000190930101A0930201B093030191
:1009B0005EC0803269F48091E80082FFFCCF67E07E
:1009C00084E091E00E94A7018BEF8093E80006C0CD
:1009D000823209F04CC08F8980930B018091E00135
:1009E000882319F0EEEFFAE002C0E0E0F8E0809131
:1009F000040190910501A0910601B0910701803B8F
:100A00009440A105B10509F088C080910B0180FFD9
:100A1000A0C083C00E940D0BDC0112960D911C91A9
:100A200013970115110539F1D801ED91FC91019051
:100A3000F081E02DBE016B5E7F4FC80109958111E9
:100A400016C0F80100851185ECCF1130C1F01330CC
:100A500091F48F89882309F455C08230E9F440E885
:100A60006AE088E391E00E944301882321F08EEF41
:100A70008093E80087C081E28093EB0083C08B8D78
:100A80009C8D089711F41093DA018091DA0181119D
:100A900036C063E471E038C0813029F440E86BE08F
:100AA0008CE291E0E0CF833031F70E940D0BDC0146
:100AB0001296ED90FC9013978E010F5F1F4F680107
:100AC000E114F10479F0D701ED91FC910680F781F2
:100AD000E02DB801C7010995080F111DF701E08449
:100AE000F184EECFD8011C92F60101900020E9F7C5
:100AF0003197BF016C197D0940E0C601B4CF65E5AF
:100B000071E002C068E271E06115710509F4B3CFCC
:100B1000FB01449150E080E833CF0FB6F894A895DC
:100B200080916000886180936000109260000FBE29
:100B3000A895EE3F2AE0F20739F08091FE0A9091E5
:100B4000FF0A9183808393CF1092FF0A1092FE0ACE
:100B50008ECFEE3F8AE0F80731F08081918190934B
:100B6000FF0A8093FE0A87E797E7918380839BE0E3
:100B700088E10FB6F894A895809360000FBE90931B
:100B8000600075CF6C960FB6F894DEBF0FBECDBF78
:100B9000DF91CF91FF91EF91BF91AF919F918F9195
:100BA0007F916F915F914F913F912F911F910F9185
:100BB000FF90EF90DF90CF900F900FBE0F901F909F
:100BC000189590E0FC013197EF30F105B0F5EA5A45
:100BD000FF4F0C94A10E809180008F7703C080910D
:100BE00080008F7D80938000089580918000877FB2
:100BF000F9CF84B58F7702C084B58F7D84BD089509
:100C0000809190008F7707C0809190008F7D03C006
:100C100080919000877F8093900008958091C0001C
:100C20008F7703C08091C0008F7D8093C0000895AE
:100C30008091C200877F8093C2000895CF93DF9395
:100C400090E0FC01EA57FE4F2491FC01ED54FE4F69
:100C50008491882361F190E0880F991FFC01E8528C
:100C6000FF4FC591D491FC01EB55FE4FA591B49176
:100C7000611109C09FB7F8948881209582238883E9
:100C8000EC912E230BC0623061F49FB7F894388149
:100C9000822F809583238883EC912E2B2C939FBFEA
:100CA00006C08FB7F894E8812E2B28838FBFDF9181
:100CB000CF9108953FB7F8948091D6019091D701D4
:100CC000A091D801B091D90126B5A89B05C02F3FAE
:100CD00019F00196A11DB11D3FBFBA2FA92F982F62
:100CE0008827820F911DA11DB11DBC01CD0142E0DD
:100CF000660F771F881F991F4A95D1F708958F9225
:100D00009F92AF92BF92CF92DF92EF92FF926B01D0
:100D10007C010E945A064B015C01C114D104E1041C
:100D2000F104F1F00E945A06DC01CB0188199909FF
:100D3000AA09BB09883E9340A105B10570F321E0E3
:100D4000C21AD108E108F10888EE880E83E0981EE7
:100D5000A11CB11CC114D104E104F10419F7DDCFC9
:100D6000FF90EF90DF90CF90BF90AF909F908F90CB
:100D700008958F929F92AF92BF92CF92DF92EF929F
:100D8000FF920F931F93CF93DF935C016B018A0156
:100D900080910B01882309F45EC080910E028823A4
:100DA00009F459C08091E10180FF05C08091E00005
:100DB00082608093E000E8018AEFF82E93E0E92E4C
:100DC0002FE3822E3AE3932E209709F43DC08FB78C
:100DD000F894E092E9009091E80095FF06C09091A8
:100DE000F200282D291B922F01C090E08FBF911196
:100DF0000AC0FA94FF2079F161E070E080E090E0B1
:100E00000E947F06E1CF292F30E0C217D3070CF4F0
:100E10009C2F8FB7F894E092E9002091E80025FF1D
:100E200011C0292F30E0C21BD30BF601915020F0E6
:100E300041914093F100FACFC20ED31E9091E80089
:100E400095FF13C08FBFC0CF5D9884E68093DF010C
:100E50001016110644F081E090E0F501938382833F
:100E600080E090E005C0C80103C09092E800EACF9E
:100E7000DF91CF911F910F91FF90EF90DF90CF9076
:100E8000BF90AF909F908F9008950F931F93CF9333
:100E9000DF93E0E7F1E08491EFE8F1E0D491ECEB4F
:100EA000F1E0C491CC23C9F081110E94E105EC2F3F
:100EB000F0E0EE0FFF1FE653FF4FA591B491EC91C8
:100EC000ED2359F00E945A0660935E0170935F0112
:100ED00080936001909361013BC00E945A0600918B
:100EE0005E0110915F012091600130916101DC0190
:100EF000CB01801B910BA20BB30B853927E0920726
:100F0000A105B10520F084E997E0A0E0B0E080936E
:100F1000090290930A02A0930B02B0930C028091F5
:100F2000090290910A02A0910B02B0910C028C343C
:100F30009440A105B10560F48CE494E0A0E0B0E039
:100F40008093090290930A02A0930B02B0930C02C3
:100F5000DF91CF911F910F9108951F920F920FB6BD
:100F60000F9211242F933F938F939F93AF93BF932F
:100F70008091D2019091D301A091D401B091D5017B
:100F80003091D10123E0230F2D3720F40196A11DCC
:100F9000B11D05C026E8230F0296A11DB11D2093A7
:100FA000D1018093D2019093D301A093D401B09347
:100FB000D5018091D6019091D701A091D801B0912F
:100FC000D9010196A11DB11D8093D6019093D7013F
:100FD000A093D801B093D901BF91AF919F918F9108
:100FE0003F912F910F900FBE0F901F9018951F9259
:100FF0000F920FB60F9211242F933F934F935F934D
:101000006F937F938F939F93AF93BF93CF93DF9310
:10101000EF93FF93C3B120916B00DC2FD0958091AB
:101020000502D823909104029C238D2F892BD09107
:101030000302DC27D223D823C0930302D0FF0BC0C6
:10104000E091E301F091E4016C2F61708091E50182
:101050009091E6010995D1FF0CC0C1FB662760F9AC
:10106000E091E701F091E8018091E9019091EA01B6
:101070000995D2FF0CC0C2FB662760F9E091EB0135
:10108000F091EC018091ED019091EE010995D3FF73
:101090000CC0C3FB662760F9E091EF01F091F0010D
:1010A0008091F1019091F2010995D4FF0CC0C4FB2D
:1010B000662760F9E091F301F091F4018091F50168
:1010C0009091F6010995D5FF0CC0C5FB662760F924
:1010D000E091F701F091F8018091F9019091FA0106
:1010E0000995D6FF0CC0C6FB662760F9E091FB01AD
:1010F000F091FC018091FD019091FE010995D7FFCF
:101100000DC06C2F661F6627661FE091FF01F091EE
:10111000000280910102909102020995FF91EF91E6
:10112000DF91CF91BF91AF919F918F917F916F91FF
:101130005F914F913F912F910F900FBE0F901F9095
:1011400018951F920F920FB60F9211242F933F9371
:101150004F935F936F937F938F939F93AF93BF93BF
:10116000EF93FF938091B900887F803609F49CC08B
:1011700068F5883209F45BC090F4803109F454C0FA
:1011800038F4882309F4F6C0883009F44DC0F6C05D
:10119000883109F44CC0803209F45DC0EFC080345E
:1011A00009F468C048F4803309F455C0883309F065
:1011B000E5C08093AA01D8C0803509F44FC08835B6
:1011C00009F45DC0883409F0D9C0D6C0883909F463
:1011D000C7C0A8F4883709F467C038F4883609F422
:1011E00063C0803709F460C0C9C0883809F4B8C04A
:1011F000803909F45FC0803809F0C0C05BC0803B13
:1012000009F486C038F4803A09F466C0883A09F4D3
:101210007FC0B4C0803C09F4A7C0883C09F4A4C0D6
:10122000883B09F48AC0AAC08091D00110C0909177
:10123000CF018091CE01981770F5E091CF0181E048
:101240008E0F8093CF01F0E0E255FE4F80818093B6
:10125000BB0085EC86C08093AA018EC0E091CF01CF
:1012600081E08E0F8093CF018091BB00F0E0E255CA
:10127000FE4F80839091CF018091CE016EC0E091AE
:10128000CF0181E08E0F8093CF018091BB00F0E011
:10129000E255FE4F80838091AD0181116DC081E0E8
:1012A0008093AC0184EA61C083E08093AB0110922B
:1012B000A901CFCF8091A901803208F051C0E091FF
:1012C000A90181E08E0F8093A9018091BB00F0E01D
:1012D000E757FE4F8083BDCF85EC8093BC00109212
:1012E000AB018091A901803230F4E091A901F0E0D6
:1012F000E757FE4F10826091A90170E0E0918701ED
:10130000F091880189E891E009951092A90136C011
:1013100084E08093AB011092860110928501E091E8
:101320008301F0918401099580918501811105C0A7
:1013300081E08093850110926301E091860181E054
:101340008E0F80938601F0E0ED59FE4F80818093EF
:10135000BB009091860180918501981708F479CFA0
:1013600085E88093BC000AC085EC8093BC00109295
:10137000AB0104C01092AA010E941A02FF91EF91E2
:10138000BF91AF919F918F917F916F915F914F919D
:101390003F912F910F900FBE0F901F9018958DE3E6
:1013A00091E00E948A0A6091080270E080E090E07B
:1013B0004AE00E94A20A89E591E00E948A0A6091AF
:1013C000070270E080E090E04AE00E94A20A89E50E
:1013D00091E00E948A0A6091060270E080E090E04D
:1013E0004AE00E94A20A8EE491E00C948A0A8F924D
:1013F0009F92AF92BF92CF92DF92EF92FF92209195
:101400006102309162028217930708F052C04B01CB
:10141000AA24BB24E82DC52ED62EE72EFF24FC2DB2
:10142000342F20916602222361F0829E4001112414
:10143000E92DC29E60011124FD2D429FD00111248F
:101440003B2FF0906C02E0906902A0916702B0918E
:101450006802FE1008C0AC01440F551F840F951F91
:101460008A0F9B1F14C0880F991F880F991F8A0F1E
:101470009B1F472F552766277727DC01AF0DB11D2E
:10148000222321F0429FA0011124452F4C9320914B
:101490006902DC01A20FB11DEC9320916A02DC010C
:1014A000A20FB11DFC9320916B02FC01E20FF11D14
:1014B0003083FF90EF90DF90CF90BF90AF909F90E0
:1014C0008F900895CF93DF93282F30E0F901E959E9
:1014D000FE4F8491F901EA57FE4FD491F901ED5482
:1014E000FE4FC491CC2399F081110E94E105EC2FAD
:1014F000F0E0EE0FFF1FEB55FE4FA591B4918FB7B3
:10150000F8949C91ED2FE095E923EC938FBFDF9148
:10151000CF910895BC01009791F0FC01019000204B
:10152000E9F73197AF01481B590BE0910F02F09199
:1015300010020280F381E02D8FE092E0099480E0B8
:1015400090E008958F929F92AF92BF920F931F9356
:10155000CF93DF93CDB7DEB7A1970FB6F894DEBF78
:101560000FBECDBF19A2423008F44AE08E010F5DD4
:101570001F4F842E912CA12CB12CA50194010E9407
:101580007012E62FB901CA0101501109EA3014F4B2
:10159000E05D01C0E95CD801EC93232B242B252BC3
:1015A00061F7C8010E948A0AA1960FB6F894DEBFBF
:1015B0000FBECDBFDF91CF911F910F91BF90AF9024
:1015C0009F908F900895FC0180910E02811103C0BD
:1015D0008FEF9FEF08959FB7F89482E08093E90022
:1015E0002091F20030E01216130614F421E030E0EE
:1015F0002115310559F0289884E680930D028091D9
:10160000F10080838091F200882319F09FBFC90107
:1016100008958BE68093E800F9CF809179028111DB
:101620000DC082E08093750284E080937602109270
:1016300078021092770281E08093790285E792E048
:1016400008958091670290916802009711F00E94BE
:1016500045118091650287FD03C060E00C941E0671
:101660000895109212021092110288EE93E0A0E009
:10167000B0E08093130290931402A0931502B093EC
:10168000160221E231E03093100220930F022FEF77
:101690003FEF30931C0220931B02109284021092A1
:1016A00083028093850290938602A0938702B09371
:1016B000880281E391E090938202809381021092EC
:1016C00060021092660210926D0210926E021092E9
:1016D0006F021092700281E080936C028093690225
:1016E00010926A0292E090936B0280935F0284EB07
:1016F00090E090936402809363020E94B0109093F4
:10170000680280936702009761F024EBFC0111925C
:101710002A95E9F78CE390E090936202809361024E
:1017200008C010926402109263021092620210923A
:1017300061028DE08093650280916002882339F018
:1017400061E08DE00E941E068DE00E94620AE0ECDE
:10175000F1E0E491F0E0EE0FFF1FEB55FE4F8591B5
:1017600094919093720280937102E3E9F1E0E49125
:10177000E09373020895CF93DF93CDB7DEB72D9733
:101780000FB6F894DEBF0FBECDBF789484B58260EB
:1017900084BD84B5816084BD85B5826085BD85B515
:1017A000816085BD80916E00816080936E00109293
:1017B000810080918100826080938100809181000E
:1017C000816080938100809180008160809380009F
:1017D000809191008260809391008091910081605E
:1017E000809391008091900081608093900080911F
:1017F000C10084608093C1008091C10082608093A9
:10180000C1008091C10081608093C1008091C300BC
:1018100081608093C3008091C00082608093C0008B
:101820008091C20081608093C20080917A008460C0
:1018300080937A0080917A00826080937A00809110
:101840007A00816080937A0080917A00806880932A
:101850007A0010920E021092E2011092E101809142
:10186000D70081608093D70080EA8093D80089B543
:10187000806189BD89B5826089BD09B400FEFDCF54
:1018800061E070E080E090E00E947F068091D800E7
:101890008F7C80618093D8008091E000807F80936E
:1018A000E0008091E1008E7E8093E1008DE08093E6
:1018B000E200559A209AEEEFFFE7859194918B3FD5
:1018C0009C4D19F481E08093E0018FEF9FEF90939E
:1018D0001C0280931B0262E089E00E941E062FB763
:1018E000F89485E497E09093F8018093F7011092C3
:1018F000FA011092F901809104028062809304023F
:101900008091050280628093050280916B00806265
:1019100080936B008091680081608093680083B140
:10192000982F9072809103028F7D892B8093030200
:101930002FBF8091650287FD07C061E00E941E06EF
:10194000809165020E94620A81E08093600260914A
:10195000090270910A0280910B0290910C026115AC
:1019600071058105910511F00E943512F7E03F2EB7
:10197000ACE02A2EBFE74B2E512C612C712C18E0C5
:10198000E12E00E0C02E00E0D02EFF24FA946091FA
:10199000090270910A0280910B0290910C020E9440
:1019A000B50F20E030E849E854E40E94A70E20E09B
:1019B00030E042E554E40E94140F20E030E048ECAF
:1019C00052E40E9443100E94860F6093740281E5E6
:1019D00091E00E948A0A6091740270E080E090E0D9
:1019E0004AE00E94A20A8BE591E00E948A0A809157
:1019F00074028A3048F51092080210920702109281
:101A000006020E94CF0900E010E080910802409198
:101A1000070250E060E070E0762F652F542F4427D6
:101A2000682B80910602482BC8010E94F7090F5FBE
:101A30001F4F0C33110549F780916702909168029E
:101A4000892B09F0D2C070C1883208F044C08A5E88
:101A5000880F880F880F809308020E94CF0900E04A
:101A600010E02091080226952695269530E040E06A
:101A700050E060E070E0CB010E94F502962E2091CC
:101A8000080226952695269530E040E050E060E07B
:101A900070E0CB010E94F502E0910802892C912CA4
:101AA000A12CB12CAE2ADC01CB019927AA27BB2798
:101AB000BA2FA92F982F8827B501A401482B592B9D
:101AC0006A2B7B2BC8010E94F7090F5F1F4F0C3355
:101AD000110539F6B1CF863440F5880F80558093D3
:101AE00007020E94CF0900E010E02091070226952E
:101AF00030E040E050E060E070E0CB010E94F50291
:101B0000862F4091070250E060E070E0762F652F4D
:101B1000542F44276F6F482BC8010E94F7090F5FAD
:101B20001F4F0C33110509F787CF8A35E0F590E098
:101B30009C0125543109239D202D11242A5B2093DB
:101B4000070286549109829D802D112480930602FC
:101B50000E94CF0900E010E0B090060290900702CA
:101B60000E9430122B2D30E040E050E0392949012D
:101B70005A01A30192010E943E12AB01BC014058E0
:101B80005F4F6F4F7F4FBA01552744274829592986
:101B90006A297B29C8010E94F7090F5F1F4F0C3388
:101BA0001105D1F649CFF0920802F0920702F092A7
:101BB00006020E94CF0900E010E0809108024091E7
:101BC000070250E060E070E0762F652F542F442725
:101BD000682B80910602482BC8010E94F7090F5F0D
:101BE0001F4F0C33110549F727CF0E945A06009169
:101BF0006D0210916E0220916F0230917002DC0133
:101C0000CB01801B910BA20BB30BC297A105B105B1
:101C100060F3F89480916302909164029A838983BF
:101C2000E0916702F0916802DF0111968081898757
:101C300090915F02E0917102F091720280917302C3
:101C4000992309F42DC09081982B988790818095D5
:101C500089238F838F818C83EB8258856F8149859F
:101C60003B812C8189819A81508347FD252F3A95AC
:101C70002083262F39F0441F00C00000608300003D
:101C800000C0F2CF38E04D9160830000019761F70A
:101C9000F0937202E093710249873B832C8337C033
:101CA0009081982B98879081809589238F838F814D
:101CB0008E83ED8258856F8149853D812E81898192
:101CC0009A81508347FD252F00C000C0208300C0AB
:101CD00000C000C000C000C060830000262F3A95FD
:101CE00041F0441F000000C000C000C000C000C0A0
:101CF000E8CF38E04D9100C0608300C0019709F73C
:101D0000F0937202E093710249873D832E839A8398
:101D1000898378940E945A0660936D0270936E02D4
:101D200080936F029093700262E370E080E090E035
:101D30000E947F06C114D10409F429CE0E9400003C
:101D400026CEEE0FFF1F0590F491E02D0994505818
:101D5000BB27AA270E94BF0E0C9409100E94FB0FFC
:101D600038F00E94021020F039F49F3F19F426F455
:101D70000C94F80F0EF4E095E7FB0C94F20FE92FAA
:101D80000E941A1058F3BA17620773078407950761
:101D900020F079F4A6F50C943C100EF4E0950B2E8F
:101DA000BA2FA02D0B01B90190010C01CA01A001AD
:101DB0001124FF27591B99F0593F50F4503E68F108
:101DC0001A16F040A22F232F342F4427585FF3CF49
:101DD000469537952795A795F0405395C9F77EF41A
:101DE0001F16BA0B620B730B840BBAF09150A1F063
:101DF000FF0FBB1F661F771F881FC2F70EC0BA0FE9
:101E0000621F731F841F48F4879577956795B79570
:101E1000F7959E3F08F0B0CF9395880F08F099276B
:101E2000EE0F9795879508950E94280F0C9409103E
:101E30000E94021058F00E94FB0F40F029F45F3F0F
:101E400029F00C94F20F51110C943D100C94F80FE2
:101E50000E941A1068F39923B1F3552391F3951B4F
:101E6000550BBB27AA2762177307840738F09F5FBB
:101E70005F4F220F331F441FAA1FA9F335D00E2E28
:101E80003AF0E0E832D091505040E695001CCAF795
:101E90002BD0FE2F29D0660F771F881FBB1F261758
:101EA00037074807AB07B0E809F0BB0B802DBF012F
:101EB000FF2793585F4F3AF09E3F510578F00C94FE
:101EC000F20F0C943D105F3FE4F3983ED4F38695F7
:101ED00077956795B795F7959F5FC9F7880F911D1F
:101EE0009695879597F90895E1E0660F771F881F0B
:101EF000BB1F621773078407BA0720F0621B730BBE
:101F0000840BBA0BEE1F88F7E09508950E9422100B
:101F100088F09F5798F0B92F9927B751B0F0E1F0AA
:101F2000660F771F881F991F1AF0BA95C9F714C05A
:101F3000B13091F00E943C10B1E008950C943C1037
:101F4000672F782F8827B85F39F0B93FCCF3869593
:101F500077956795B395D9F73EF4909580957095F0
:101F600061957F4F8F4F9F4F0895E89409C097FB6D
:101F70003EF490958095709561957F4F8F4F9F4F60
:101F80009923A9F0F92F96E9BB279395F6958795A4
:101F900077956795B795F111F8CFFAF4BB0F11F467
:101FA00060FF1BC06F5F7F4F8F4F9F4F16C088230E
:101FB00011F096E911C0772321F09EE8872F762F44
:101FC00005C0662371F096E8862F70E060E02AF085
:101FD0009A95660F771F881FDAF7880F9695879571
:101FE00097F9089597F99F6780E870E060E0089599
:101FF0009FEF80EC089500240A9416161706180621
:102000000906089500240A941216130614060506FC
:102010000895092E0394000C11F4882352F0BB0F8D
:1020200040F4BF2B11F460FF04C06F5F7F4F8F4FF0
:102030009F4F089557FD9058440F551F59F05F3F2B
:1020400071F04795880F97FB991F61F09F3F79F0DA
:1020500087950895121613061406551FF2CF46955C
:10206000F1DF08C0161617061806991FF1CF8695DE
:102070007105610508940895E894BB2766277727C2
:10208000CB0197F908950E9456100C9409100E94F4
:10209000FB0F38F00E94021020F0952311F00C94F1
:1020A000F20F0C94F80F11240C943D100E941A109A
:1020B00070F3959FC1F3950F50E0551F629FF0019B
:1020C000729FBB27F00DB11D639FAA27F00DB11DB4
:1020D000AA1F649F6627B00DA11D661F829F22273D
:1020E000B00DA11D621F739FB00DA11D621F839FC4
:1020F000A00D611D221F749F3327A00D611D231F9A
:10210000849F600D211D822F762F6A2F11249F57E7
:1021100050409AF0F1F088234AF0EE0FFF1FBB1FEA
:10212000661F771F881F91505040A9F79E3F5105A9
:1021300080F00C94F20F0C943D105F3FE4F3983E56
:10214000D4F3869577956795B795F795E7959F5F53
:10215000C1F7FE2B880F911D9695879597F90895E5
:10216000CF93DF938230910510F482E090E0E0910C
:102170008F02F091900220E030E0C0E0D0E0309794
:1021800011F14081518148175907C0F0481759078C
:1021900061F482819381209719F09B838A832BC0FD
:1021A0009093900280938F0226C02115310519F07B
:1021B0004217530718F49A01BE01DF01EF010280B4
:1021C000F381E02DDCCF2115310509F1281B390BF6
:1021D0002430310590F412968D919C9113976115DE
:1021E000710521F0FB019383828304C090939002D8
:1021F00080938F02FD01329644C0FD01E20FF31F70
:1022000081939193225031092D933C933AC02091B0
:102210008D0230918E02232B41F420910E013091DA
:102220000F0130938E0220938D0220910C0130918A
:102230000D012115310541F42DB73EB74091100134
:1022400050911101241B350BE0918D02F0918E020B
:10225000E217F307A0F42E1B3F0B2817390778F07D
:10226000AC014E5F5F4F2417350748F04E0F5F1FDC
:1022700050938E0240938D028193919302C0E0E0CF
:10228000F0E0CF01DF91CF9108950F931F93CF938B
:10229000DF93009709F48CC0FC01329713821282FD
:1022A00000918F02109190020115110581F4208197
:1022B0003181820F931F20918D0230918E02281759
:1022C000390779F5F0938E02E0938D0271C0D80141
:1022D00040E050E0AE17BF0750F412962D913C91AC
:1022E0001397AD012115310509F1D901F3CF9D01F6
:1022F000DA013383228360817181860F971F8217F1
:10230000930769F4EC0128813981260F371F2E5F6E
:102310003F4F318320838A819B8193838283452B26
:1023200029F4F0939002E0938F0242C01396FC933D
:10233000EE931297ED01499159919E01240F351F9B
:10234000E217F30771F480819181840F951F029643
:1023500011969C938E938281938113969C938E9376
:102360001297E0E0F0E0D80112968D919C911397BE
:10237000009719F0F8018C01F6CF8D919C9198018E
:102380002E5F3F4F820F931F20918D0230918E025E
:102390002817390769F4309729F4109290021092A7
:1023A0008F0202C01382128210938E0200938D025C
:1023B000DF91CF911F910F91089581E090E0F89403
:1023C0000C94A1128F929F92AF92BF92CF92DF9204
:1023D000EF92FF92CF93DF93EC01688179818A813C
:1023E0009B81611571058105910521F464E279ED08
:1023F0008BE597E02DE133EF41E050E00E943E1283
:1024000049015A019B01AC01A7EAB1E40E945D12A7
:102410006B017C01ACEEB4EFA50194010E946B123C
:10242000DC01CB018C0D9D1DAE1DBF1DB7FF03C090
:102430000197A109B04888839983AA83BB83BC0113
:10244000CD019F77DF91CF91FF90EF90DF90CF90FC
:10245000BF90AF909F908F9008950E94E2110895D1
:1024600082E191E00E94E21108956093120170935D
:10247000130180931401909315010895052E97FB85
:102480001EF400940E94551257FD07D00E9470124E
:1024900007FC03D04EF40C9455125095409530959E
:1024A00021953F4F4F4F5F4F0895909580957095C0
:1024B00061957F4F8F4F9F4F08950E949212A59F65
:1024C000900DB49F900DA49F800D911D112408952F
:1024D000B7FF0C945D120E945D12821B930B08954E
:1024E000A1E21A2EAA1BBB1BFD010DC0AA1FBB1F18
:1024F000EE1FFF1FA217B307E407F50720F0A21B8A
:10250000B30BE40BF50B661F771F881F991F1A94F6
:1025100069F760957095809590959B01AC01BD0120
:10252000CF010895A29FB001B39FC001A39F700D7A
:10253000811D1124911DB29F700D811D1124911DCB
:10254000089510E0CAEED0E004C0FE010E94A10E82
:0C2550002196CB3ED107C9F7F894FFCFCD
:10255C00FFFFFFFF00E100000000000000009102FF
:10256C0080000100000000C180810000000000001C
:10257C0000DF01B9060002B302D102F50100000030
:10258C00006E025A02530250024D024C02726564F4
:10259C002F677265656E2F626C75653A20000D0AA7
:0E25AC00005468726F74746C653A002520004C
:00000001FF
