:100000000C94C5000C94ED000C94ED000C94ED00E4
:100010000C94ED000C94ED000C94ED000C94ED00AC
:100020000C94ED000C94B6050C944F080C94C10888
:100030000C94ED000C94ED000C94ED000C94ED008C
:100040000C94ED000C94ED000C94ED000C94ED007C
:100050000C94ED000C94ED000C94ED000C94000554
:100060000C94ED000C94ED000C94ED000C94ED005C
:100070000C94ED000C94ED000C94ED000C94ED004C
:100080000C94ED000C94ED000C94ED000C94ED003C
:100090000C94ED000C94ED000C94ED000C94ED002C
:1000A0000C94ED000C944A050C94ED00080B000232
:1000B0000202010009040000010202000005240000
:1000C0001001052401010104240206052406000193
:1000D0000705810310004009040100020A00000026
:1000E00007050202400000070583024000000403E8
:1000F0000904426C696E6B696E6C61627300426CDC
:10010000696E6B7954617065001201000200000095
:1001100040501D5E6000010102030112010002EF68
:10012000020140501D5E6000010102030100000059
:1001300000250028002B002E0031000000000024C4
:100140000027002A002D00300004040404040304E6
:100150000502020202040302020202060606060665
:100160000604040202020404040802011040804054
:1001700010204080408008020401804020100201CD
:100180001080102040402000870C11241FBECFEFAC
:10019000DAE0DEBFCDBF11E0A0E0B1E0E6EEFFE1C6
:1001A00002C005900D92A634B107D9F728E0A6E465
:1001B000B1E001C01D92AA30B207E1F710E0C5EC32
:1001C000D0E004C02197FE010E94C10FC43CD107BA
:1001D000C9F70E94BE0C0C94F10F0C940000EF9232
:1001E000FF920F931F93CF93DF93EC018A859B853A
:1001F000892B21F4888599859D878C8780E090E004
:10020000288139818217930708F03DC02C853D85F0
:10021000F90154913196449131962491142F187F0D
:10022000E22FE07E3E2F369536953695A0E24A9F26
:10023000F00111240E2F032B220F220F220FDC01BD
:10024000AA0FBB1FA80FB91F1296A60FB71F30E049
:10025000351781F07D01E2E0EE1AF108F701108315
:100260007D01F1E0EF1AF108F70100832C933F5F65
:100270001396EECF830F911D2C853D852D5F3F4F4B
:100280003D872C87BDCFDF91CF911F910F91FF90BC
:10029000EF900895CF93DF93EC014A855B85288129
:1002A0003981429FC001439F900D529F900D1124B0
:1002B0009C01220F331F820F931F28853985820FDF
:1002C000931F9D878C87DB01129680E090E060E0B1
:1002D00070E02881398162177307D8F42C853D8539
:1002E000FC013296E20FF31F4491FC013196E20FBC
:1002F000F31F5491F901E80FF91F2491FD01329782
:100300002083319650834C936F5F7F4F03961396F3
:10031000E0CFDF91CF910895EF92FF920F931F935B
:10032000CF93DF93EC0190914A019F5F292F2770B3
:1003300020934A0190FF02C090E801C090E021FDA7
:100340009064247009F0906220E1290FFE013C9630
:100350007E018FE0E80EF11C00E011E06191662360
:1003600031F070E0C8010E945A0F6F5F01C060E079
:10037000DF0114976C93322F369F030E30E0311D4E
:100380001124CF010797311103C0EC01188203C07B
:100390003150EC013883662311F061506C93EE15F7
:1003A000FF05E1F6DF91CF911F910F91FF90EF9044
:1003B000089580E991E00895579A08950F931F9347
:1003C000CF93DF93CDB7DEB762970FB6F894DEBF59
:1003D0000FBECDBF8C01F901DC011C968C917A8394
:1003E00069835C834B835E834D8390819D8791817C
:1003F0009E8792819F87813029F4CE0101960E94C9
:100400008C0106C01C861B861A86198618861F82D8
:1004100083E0888B1A8A198AD801ED91FC910484B3
:10042000F585E02DBE016F5F7F4FC801099562968B
:100430000FB6F894DEBF0FBECDBFDF91CF911F91F5
:100440000F9108950F931F93CF93DF93CDB7DEB72E
:1004500062970FB6F894DEBF0FBECDBF8C01F901D5
:10046000DC011C968C917A8369835C834B835E8369
:100470004D8390819D8791819E8792819F87813056
:1004800029F4CE0101960E948C0106C01C861B86B1
:100490001A86198618861F82188A1A8A198AD8011C
:1004A000ED91FC910484F585E02DBE016F5F7F4FD7
:1004B000C801099562960FB6F894DEBF0FBECDBF96
:1004C000DF91CF911F910F91089580E090E0089502
:1004D000FC01858596850895CF93DF9300D000D0E9
:1004E00000D0CDB7DEB7AB011C821D821E82DC01BD
:1004F000ED91FC910190F081E02D19821A821B820E
:100500009E012F5F3F4FBE016C5F7F4F099526967E
:100510000FB6F894DEBF0FBECDBFDF91CF91089527
:100520003FB7F89480914C0190914D01A0914E01FC
:10053000B0914F0126B5A89B05C02F3F19F0019639
:10054000A11DB11D3FBFBA2FA92F982F8827820F59
:10055000911DA11DB11DBC01CD0142E0660F771FA9
:10056000881F991F4A95D1F708954F925F926F9215
:100570007F928F92AF92BF92CF92DF92EF92FF92D3
:100580001F93CF93DF933C01EB010E949002F30194
:1005900027853089621B730B6A307105B0F3F894BC
:1005A000E881F9817BB170688BB18F778BB9CA8490
:1005B0009F812C2D291B922F2F83BF844A805B8023
:1005C000FD84EC84DE84F394E394D3943E814885E7
:1005D000A9848B841181D20120E0522F622F618186
:1005E000112788946111690F08F46FEF9195889431
:1005F000F0FC160F17958894F1FC160F1795889448
:10060000F2FC160F17958894F3FC160F1795889433
:10061000F4FC160F17958894F5FC160F179588941F
:10062000F6FC160F17958894F7FC160F179588940B
:10063000262FF110212F9C0D122F002C7BB900C00A
:1006400000C017FF8BB960812227889400C0002C5E
:100650008BB96111630F00C0002C7BB900C000C0D2
:1006600016FF8BB908F46FEF3195889400C0002C09
:100670008BB9E0FC260F00C0002C7BB900C000C085
:1006800015FF8BB927958894E1FC260F00C0002C3C
:100690008BB92795889400C0002C7BB900C000C09E
:1006A00014FF8BB9E2FC260F2795889400C0002C1C
:1006B0008BB9E3FC260F00C0002C7BB900C000C042
:1006C00013FF8BB927958894E4FC260F00C0002CFB
:1006D0008BB92795889400C0002C7BB900C000C05E
:1006E00012FF8BB9E5FC260F2795889400C0002CDB
:1006F0008BB9E6FC260F00C0002C7BB900C000C0FF
:1007000011FF8BB927958894E7FC260F00C0002CB9
:100710008BB92795889400C0002C7BB900C000C01D
:1007200010FF8BB9162FE110122F3A0D00C0002CCC
:100730008BB900C000C0002C7BB900C000C017FFFF
:100740008BB962812227889400C0002C8BB961117B
:10075000640F00C0002C7BB900C000C016FF8BB92D
:1007600008F46FEFEB0DF11D00C0002C8BB9D0FC2D
:10077000260F00C0002C7BB900C000C015FF8BB94C
:1007800027958894D1FC260F00C0002C8BB92795A3
:10079000889400C0002C7BB900C000C014FF8BB946
:1007A000D2FC260F2795889400C0002C8BB9D3FC6F
:1007B000260F00C0002C7BB900C000C013FF8BB90E
:1007C00027958894D4FC260F00C0002C8BB9279560
:1007D000889400C0002C7BB900C000C012FF8BB908
:1007E000D5FC260F2795889400C0002C8BB9D6FC29
:1007F000260F00C0002C7BB900C000C011FF8BB9D0
:1008000027958894D7FC260F00C0002C8BB927951C
:10081000889400C0002C7BB900C000C010FF8BB9C9
:10082000162FD110122F419500C0002C8BB9480D06
:1008300000C000C07BB900C000C017FF8BB9618148
:100840002227889400C0002C8BB96111690F00C069
:10085000002C7BB900C000C016FF8BB908F46FEF05
:100860009195889400C0002C8BB9F0FC260F00C035
:10087000002C7BB900C000C015FF8BB92795889468
:10088000F1FC260F00C0002C8BB92795889400C07E
:10089000002C7BB900C000C014FF8BB9F2FC260FFE
:1008A0002795889400C0002C8BB9F3FC260F00C05C
:1008B000002C7BB900C000C013FF8BB9279588942A
:1008C000F4FC260F00C0002C8BB92795889400C03B
:1008D000002C7BB900C000C012FF8BB9F5FC260FBD
:1008E0002795889400C0002C8BB9F6FC260F00C019
:1008F000002C7BB900C000C011FF8BB927958894EC
:10090000F7FC260F00C0002C8BB92795889400C0F7
:10091000002C7BB900C000C010FF8BB9162FF1105E
:10092000122F9C0D00C0002C8BB9119709F086CEB8
:1009300020EE31E0D2010E94AF0FDC01CB01F4E0E8
:10094000B695A79597958795FA95D1F720E030E071
:10095000A9016AE9469E412D569E400D511D112464
:10096000840F951FA11DB11D893E43E09407A10589
:10097000B10588F1885E9340A109B10942E0B695BE
:10098000A795979587954A95D1F747E0849F212DA4
:10099000949F200D311D11246091490170E0860F54
:1009A000971F820F931F40916201509163016091E4
:1009B000640170916501292F3327420F531F611D78
:1009C000711D4093620150936301609364017093C1
:1009D00065018093490178940E949002F301708B25
:1009E0006787DF91CF911F91FF90EF90DF90CF90BD
:1009F000BF90AF908F907F906F905F904F900895D1
:100A00001F920F920FB60F9211242F933F938F9343
:100A10009F93AF93BF938091620190916301A091E6
:100A20006401B091650130914B0123E0230F2D3714
:100A300020F40196A11DB11D05C026E8230F0296E2
:100A4000A11DB11D20934B0180936201909363011E
:100A5000A0936401B093650180914C0190914D0188
:100A6000A0914E01B0914F010196A11DB11D80933F
:100A70004C0190934D01A0934E01B0934F01BF9153
:100A8000AF919F918F913F912F910F900FBE0F903B
:100A90001F9018951F920F920FB60F9211248F93EB
:100AA00080915F01811110925D01109272008F910F
:100AB0000F900FBE0F901F901895CF93C82F609185
:100AC0005C010E943A0F9093590182E090E00E94ED
:100AD000DB0F8C1729F06C2F82E090E00E94E30F6F
:100AE0008091590127E0829FC001112485579049C8
:100AF000FC012491319665917491FC013396A59186
:100B0000B491FC0135968591949140915A01509190
:100B10005B01B0937601A093750170937C016093A3
:100B20007B01622F70E070937A016093790150939A
:100B3000740140937301909378018093770122238D
:100B400029F0213069F48FEE90E002C08AE491E050
:100B5000909382018093810110928401109283010D
:100B600010927E0110927D01CF9108951F920F92F5
:100B70000FB60F9211242F933F934F935F936F9370
:100B80007F938F939F93AF93BF93EF93FF93809146
:100B90005F018823C9F11D9B10C081E080935E0135
:100BA00080935D011092BF001092BE0088E0809398
:100BB000C10084E0809372005FC01092C100109267
:100BC000720080915D01882309F456C080915E0116
:100BD000882309F451C010925E014091BE005091EB
:100BE000BF0080914701909148019C012F5F3F4FCA
:100BF0002417350760F02091BE003091BF000197A7
:100C00002817390720F038C01092720035C02091A3
:100C1000BE003091BF00309348012093470144E665
:100C2000429FC001439F900D11248C599A4463E365
:100C300070E00E945A0F683D8FEF78078CF4809126
:100C40004601811119C080910C0180936601809149
:100C500059018F5F0E945D0581E0809346010CC0C1
:100C600010924601663071052CF060936601609326
:100C70000C0102C010926601FF91EF91BF91AF91FC
:100C80009F918F917F916F915F914F913F912F91A4
:100C90000F900FBE0F901F901895409153015091E7
:100CA0005401209151013091520142175307B4F47D
:100CB0009091E8009570E1F39091E80092FD19C0E1
:100CC0008093F100809153019091540101968F73AC
:100CD0009927892B19F48EEF8093E80080915301B6
:100CE000909154010196909354018093530181E0B7
:100CF000089580E00895CF92DF92EF92FF920F93D4
:100D00001F93CF93DF931F92CDB7DEB7182F062F17
:100D1000E42E862F880F8E5F99830E944D0683E014
:100D20000E944D06F12EC12E9981D92E8C2D8F193E
:100D3000801798F4F601E7FE02C0849101C080811B
:100D40000E944D06182F80E00E944D068123FFEF80
:100D5000CF1ADF0A8111EACF01C081E00F90DF9145
:100D6000CF911F910F91FF90EF90DF90CF9008955A
:100D7000DF92EF92FF920F931F93CF93DF93D82EC2
:100D80008A017B01E40EF51EEB01CE15DF0571F043
:100D9000D7FE03C0FE01849101C088810E944D06E8
:100DA00021968111F2CF8FEF9FEF01C0C801DF9133
:100DB000CF911F910F91FF90EF90DF9008956150B8
:100DC00030F02091F100FC0120830196F8CF2898A3
:100DD00084E6809360010895CF92DF92EF92FF92B4
:100DE0000F931F93CF93DF936C017A018B01C0E0C7
:100DF000D0E0CE15DF0589F0D8016D918D01D601C7
:100E0000ED91FC910190F081E02DC6010995892BAF
:100E100011F47E0102C02196ECCFC701DF91CF9182
:100E20001F910F91FF90EF90DF90CF900895CF9397
:100E3000DF931F92CDB7DEB76983DC01ED91FC91A2
:100E40000280F381E02D41E050E0BE016F5F7F4FF3
:100E500009950F90DF91CF91089583E08093E90089
:100E60008091F200882319F08AE38093E8000895C6
:100E7000FC018485958597FD0BC09FB7F89482E0AF
:100E80008093E9008091F2009FBF90E00196089561
:100E90009FB7F89482E08093E9008091F2009FBFB1
:100EA00090E008950E94D60F0F931F93CF93DF9386
:100EB0001F92CDB7DEB782E0898342E450E06CEA4E
:100EC00070E080E80E94B8060E94730CDC01129664
:100ED0000D911C9113970115110569F0D801ED9141
:100EE000FC910280F381E02DBE016F5F7F4FC8014E
:100EF000099597FF07C089810F90DF91CF911F91CE
:100F00000F910895F80100851185E5CF8F929F928A
:100F1000AF92BF92CF92DF92EF92FF920F931F9307
:100F2000CF93DF935C016B018A0180910B018823D1
:100F300009F459C080916101882309F454C080915B
:100F4000570180FF05C08091E00082608093E0003F
:100F5000E8018AEFF82E93E0E92E2FE3822E3AE3A0
:100F6000932E2097C9F18FB7F894E092E900909101
:100F7000E80095FF06C09091F200282D291B922FC2
:100F800001C090E08FBF911106C0FA94FF2059F183
:100F90000E94590CE6CF292F30E0C217D3070CF47A
:100FA0009C2F8FB7F894E092E9002091E80025FF8C
:100FB00011C0292F30E0C21BD30BF601915020F055
:100FC00041914093F100FACFC20ED31E9091E800F8
:100FD00095FF13C08FBFC5CF5D9884E68093550100
:100FE0001016110644F081E090E0F50193838283AE
:100FF00080E090E005C0C80103C09092E800EACF0D
:10100000DF91CF911F910F91FF90EF90DF90CF90E4
:10101000BF90AF909F908F9008950F931F93CF93A1
:10102000DF931F92CDB7DEB78C01FC0184859585D7
:1010300097FF0EC0CE0101960E942F0C019719F464
:10104000298130E002C02FEF3FEFF8013587248778
:10105000F801848595850F90DF91CF911F910F91B5
:101060000895CF93DF931F92CDB7DEB7FC0184853F
:10107000958597FD05C02FEF3FEF358724870BC07F
:10108000CE0101960E942F0C019719F4898190E0FE
:1010900002C08FEF9FEF0F90DF91CF9108951F92C5
:1010A0000F920FB60F9211248F939F938091E100BE
:1010B0009091E100937F9093E10083FF0FC0109225
:1010C000E90091E09093EB001092EC0092E3909392
:1010D000ED001092610198E09093F00082FF20C033
:1010E00093E09093E9009091F200992319F09AE32C
:1010F0009093E80090915501992339F09091550112
:10110000915090935501992389F190916001992311
:1011100039F090916001915090936001992341F1D1
:1011200084FF10C08091E2008E7E81608093E20097
:101130008091E1008F7E8093E100809157018E7E47
:10114000806111C080FF16C08091E2008E7E8061B8
:101150008093E2008091E1008E7E8093E100809197
:1011600057018E7E81608093570104C05D9ACDCF78
:10117000289AD6CF9F918F910F900FBE0F901F90FE
:1011800018951F920F920FB60F921124CF92DF92F3
:10119000EF92FF920F931F932F933F934F935F9381
:1011A0006F937F938F939F93AF93BF93EF93FF932F
:1011B000CF93DF93CDB7DEB76C97DEBFCDBF109274
:1011C000E9008091E80083FFFAC168E0CE0145960E
:1011D0000E94DF0682EF8093E8008D8987FF05C0BB
:1011E0009091E80090FFFCCF03C09EEF9093E80041
:1011F000982F907609F0C6C09E892F89188D91117D
:101200000CC0803829F4809158018093F10002C00D
:101210001092F1001092F10047C1422F50E0512B83
:10122000913051F4811140C14130510509F03CC168
:10123000809158018D7F0BC0933061F4811134C1CE
:101240004130510509F030C180915801826080938E
:1012500058012AC1953041F48091E80080FFFCCF0D
:1012600020682093E30020C1963009F05FC0EB8C2A
:10127000FC8C1092E900109254011092530112302C
:1012800091F510925201109251010E94540799E079
:10129000BE016F5F7F4FDB01E92F1D92EA95E9F7F1
:1012A00099831A8391E09E8390EA98879AEF9987B1
:1012B0002091530130915401275F3F4F3C832B8392
:1012C0008D831092E9001092540110925301F09214
:1012D0005201E092510149E050E080E00E94B806DE
:1012E0000E945407E1C0F0925201E09251010E9425
:1012F000730CDC011296ED90FC901397E114F1044D
:1013000009F4C0C0D701ED91FC910480F581E02D76
:10131000BE016B5E7F4FC7010995009719F00CF075
:10132000C3C0C6C0F701E084F184E8CF973009F468
:10133000BFC0983021F481E08093F100B5C09930AE
:1013400009F0B2C0837009F0B3C0EEE0F1E081E0D3
:1013500021E036E39081992361F08093E9002093A6
:10136000EB0091919093EC003093ED008F5F87300C
:1013700089F78EE78093EA001092EA008F898093C4
:10138000610192C08B8D9C8D1092E90010925401E6
:10139000109253019093520180935101898D8111D4
:1013A00056C08E899D89913A59F4813209F080C0E6
:1013B00047E050E064E071E080E00E94B80674C04D
:1013C000913209F075C0833289F4888D90E0982FAE
:1013D00088272F89822BA0E0B0E0809300019093B2
:1013E0000101A0930201B09303015EC0803269F451
:1013F0008091E80082FFFCCF67E084E091E00E94EA
:10140000DF068BEF8093E80006C0823209F04CC003
:101410008F8980930B0180915601882319F0EEEF9C
:10142000FAE002C0E0E0F8E080910401909105014B
:10143000A0910601B0910701803B9440A105B10540
:1014400009F088C080910B0180FFA0C083C00E947A
:10145000730CDC0112960D911C9113970115110567
:1014600039F1D801ED91FC910190F081E02DBE01A0
:101470006B5E7F4FC8010995811116C0F801008588
:101480001185ECCF1130C1F0133091F48F8988238E
:1014900009F455C08230E9F440E86AE08EEF90E04C
:1014A0000E947B06882321F08EEF8093E80087C09E
:1014B00081E28093EB0083C08B8D9C8D089711F4A3
:1014C0001093500180915001811136C069E071E0A4
:1014D00038C0813029F440E86BE082EF90E0E0CF43
:1014E000833031F70E94730CDC011296ED90FC9072
:1014F00013978E010F5F1F4F6801E114F10479F01B
:10150000D701ED91FC910680F781E02DB801C7016C
:101510000995080F111DF701E084F184EECFD80181
:101520001C92F60101900020E9F73197BF016C1978
:101530007D0940E0C601B4CF6BE171E002C06EEE00
:1015400070E06115710509F4B3CFFB01449150E0DF
:1015500080E833CF0FB6F894A89580916000886139
:1015600080936000109260000FBEA895EE3F2AE0C5
:10157000F20739F08091FE0A9091FF0A91838083EF
:1015800093CF1092FF0A1092FE0A8ECFEE3F8AE0B0
:10159000F80731F0808191819093FF0A8093FE0AD1
:1015A00087E797E7918380839BE088E10FB6F89403
:1015B000A895809360000FBE9093600075CF6C96E5
:1015C0000FB6F894DEBF0FBECDBFDF91CF91FF9174
:1015D000EF91BF91AF919F918F917F916F915F91AB
:1015E0004F913F912F911F910F91FF90EF90DF90BE
:1015F000CF900F900FBE0F901F9018953F924F9273
:101600005F926F927F928F929F92AF92BF92CF9292
:10161000DF92EF92FF920F931F93CF93DF9300D04F
:101620001F92CDB7DEB7F82E8091690190916A01C3
:10163000A0916B01B0916C01892B8A2B8B2BE9F067
:101640000E9490020091B6071091B7072091B80749
:101650003091B907DC01CB01801B910BA20BB30BBE
:101660000091690110916A0120916B0130916C0128
:1016700080179107A207B307B8F20E949002609307
:10168000B6077093B7078093B8079093B907E091B6
:101690007101F0917201309759F040916D015091B4
:1016A0006E0160916F01709170018F2D0995F82E78
:1016B0000091B4071091B5074F2C512C612C712C5F
:1016C0000115110509F461C0D8011C96EC901C9716
:1016D00080916701909168018436910510F41C9601
:1016E0001C92D801ED91FC91A280B38019821A82DC
:1016F0001B82F11014C0F801458556856281738103
:101700009E012F5F3F4FC801F5010995D8011C9636
:10171000EC921C9714960D911C911597D1CFF8015E
:101720003996CE0101966C0148019CE0890E911C0E
:10173000DF0113973C902191332001F12223F1F036
:10174000822F90E0A0E0B0E09C01AD012F5F3F4F01
:101750004F4F5F4FC301B2010E942A0F9B01AC01A2
:10176000832D90E0A0E0B0E0BC01CD016F5F7F4F22
:101770008F4F9F4F0E942A0FD6018C93BFEFCB1A39
:10178000DB0AE815F905A1F6B6CF8091B207909172
:10179000B3079C012F5F3F4F3093B3072093B207ED
:1017A00049970CF447C08FB7F894009162011091EB
:1017B000630120916401309165018FBFE091B20710
:1017C000F091B30788EE93E0E89FB001E99F700DB8
:1017D000F89F700D1124072E000C880B990BC090F8
:1017E000AE07D090AF07E090B007F090B107A90125
:1017F00098012C193D094E095F090E946E0F309324
:101800006801209367011092B3071092B2072FB7B7
:10181000F8948091620190916301A0916401B0916C
:1018200065012FBF8093AE079093AF07A093B007D9
:10183000B093B1070F900F900F90DF91CF911F9150
:101840000F91FF90EF90DF90CF90BF90AF909F905F
:101850008F907F906F905F904F903F900895FC0124
:1018600080916101811103C08FEF9FEF08959FB7B1
:10187000F89482E08093E9002091F20030E01216A3
:10188000130614F421E030E02115310559F02898B1
:1018900084E6809360018091F10080838091F20062
:1018A000882319F09FBFC90108958BE68093E80053
:1018B000F9CFCF92DF92EF92FF920E9490026B01DC
:1018C0007C010E949002DC01CB018C199D09AE09BC
:1018D000BF09883E9340A105B10598F3FF90EF90B2
:1018E000DF90CF9008958091A60781110DC082E00E
:1018F0008093A20784E08093A3071092A50710921B
:10190000A40781E08093A60782EA97E00895EAEBB6
:10191000F7E01382128288EE93E0A0E0B0E08483C7
:101920009583A683B7838AE391E0918380838FEFC9
:101930009FEF95878487E6E6F1E08083128211822B
:10194000148613868FEF9FEFDC0187839087A18732
:10195000B287E3E7F1E013821282118610861782C4
:10196000168211821082158214828AE491E0978790
:101970008687118A108A138612860895CF93DF9383
:1019800000D01F92CDB7DEB7789484B5826084BD55
:1019900084B5816084BD85B5826085BD85B5816073
:1019A00085BD80916E00816080936E0010928100F1
:1019B00080918100826080938100809181008160AC
:1019C000809381008091800081608093800080916D
:1019D000910082608093910080919100816080935A
:1019E0009100809190008160809390008091C1006F
:1019F00084608093C1008091C10082608093C100A7
:101A00008091C10081608093C1008091C30081609A
:101A10008093C3008091C00082608093C000809159
:101A2000C20081608093C20080917A0084608093BC
:101A30007A0080917A00826080937A0080917A00A7
:101A4000816080937A0080917A00806880937A0028
:101A50001092610110925801109257018091D700A5
:101A600081608093D70080EA8093D80089B5806137
:101A700089BD89B5826089BD09B400FEFDCF0E9491
:101A8000590C8091D8008F7C80618093D800809120
:101A9000E000807F8093E0008091E1008E7E809363
:101AA000E1008DE08093E200559A209AEEEFFFE787
:101AB000859194918B3F9C4D19F481E08093560160
:101AC0008FEF9FEF9093C7078093C607E3E8F1E09D
:101AD0002491E4E6F1E084918823C9F090E0880F36
:101AE000991FFC01E55CFE4F45915491FC01E35DBB
:101AF000FE4FA591B4919FB7F894FA013081822FDF
:101B0000809583238083EC912E2B2C939FBFD89AB2
:101B100080916B00806280936B008091680081608F
:101B2000809368001092800084E0809381008FEFA2
:101B300086BBE0E8FFE6E491E0935C01E1E8FFE6C4
:101B40008591949190935B0180935A0181309240EA
:101B500030F080E092E090935B0180935A0180E046
:101B600090E00E94DB0F823109F064C181E090E0D7
:101B70000E94DB0F843309F05DC182E090E00E9497
:101B8000DB0F809359010E945D05E0905A01F090AF
:101B90005B0180919801811145C010928A011092D9
:101BA00089018FEF80938D0180938E0180938F0147
:101BB00080939001809391018093920181E08093C2
:101BC0009301109295011092940110928C01109241
:101BD0008B018091B4079091B507892B31F487E888
:101BE00091E09093B5078093B407E0918501F0915F
:101BF0008601309721F087E891E09583848387E818
:101C000091E0909386018093850110929701109244
:101C1000960188E291E0909388018093870181E0AA
:101C200080939801E0918701F09188010480F5810B
:101C3000E02D87E891E0099582EA91E090938A018E
:101C400080938901F0929501E0929401E0918701DF
:101C5000F09188010284F385E02D87E891E00995F1
:101C6000009711F19C0140E050E060E472E48FE0E5
:101C700090E00E94900FC0906901D0906A01E090BE
:101C80006B01F0906C01C901DA018C159D05AE0560
:101C9000BF0510F4D701C6018093690190936A01D2
:101CA000A0936B01B0936C0187E891E09093A10140
:101CB0008093A001809166010E94FE0A5FE3C52E19
:101CC00060E0E62E60E0F62EDD24D39420917701CB
:101CD00030917801C29EC001C39E900D1124809561
:101CE00090959093850080938400D6BAF8941092D2
:101CF0005F0110925E0178942091830130918401FC
:101D0000E0918101F0918201C9019595879520FFAD
:101D10000AC0DC01AD58BE4F2D913C91E20FF31F7C
:101D20000190F081E02D62EA71E08D589E4F099597
:101D3000809166010E94FE0A80917D0190917E0152
:101D4000019660917501709176010E94460F909303
:101D50007E0180937D018AEB97E00E943807181678
:101D600019060CF052C0D12C32EAE32E31E0F32EEA
:101D70008AEB97E00E94380718161906CCF78AEB11
:101D800097E00E9431088F3FF9F48091A001909173
:101D9000A101DC01ED91FC910084F185E02D099514
:101DA0008017910740F4E091A001F091A101F38226
:101DB000E28216870587809166010E94FE0A90E004
:101DC00000E010E0D92ED4CF91E09D0DE1E0F0E0ED
:101DD000EC0FFD1FED0DF11D8083933099F7011578
:101DE000B2E01B0710F090E0EDCF8B819A81F801F3
:101DF000EE0FFF1FE00FF11FEE55FE4F29812083EC
:101E0000918382830F5F1F4FEECFF894D0925F01D2
:101E1000789480915D01811104C080910C018093C0
:101E20006601B09BFECFE114F10409F44FCF0E948C
:101E300000004CCF62E180E090E00E94E30F64E399
:101E400081E090E00E94E30F60E082E090E00E9479
:101E5000E30F93CEDB018F939F930E94B60FBF9148
:101E6000AF91A29F800D911DA39F900DB29F900DE9
:101E700011240895991B79E004C0991F961708F062
:101E8000961B881F7A95C9F780950895AA1BBB1BDE
:101E900051E107C0AA1FBB1FA617B70710F0A61B6A
:101EA000B70B881F991F5A95A9F780959095BC018B
:101EB000CD01089597FB072E16F4009407D077FD07
:101EC00009D00E94460F07FC05D03EF490958195FD
:101ED0009F4F0895709561957F4F0895A1E21A2E46
:101EE000AA1BBB1BFD010DC0AA1FBB1FEE1FFF1FBE
:101EF000A217B307E407F50720F0A21BB30BE40B0E
:101F0000F50B661F771F881F991F1A9469F7609554
:101F10007095809590959B01AC01BD01CF0108950E
:101F2000052E97FB1EF400940E94A70F57FD07D0C3
:101F30000E946E0F07FC03D04EF40C94A70F50952F
:101F40004095309521953F4F4F4F5F4F08959095A5
:101F50008095709561957F4F8F4F9F4F08950E9498
:101F6000C70FB7FF0895821B930B08950E94C70FF8
:101F7000A59F900DB49F900DA49F800D911D1124DD
:101F80000895EE0FFF1F0590F491E02D0994A29F94
:101F9000B001B39FC001A39F700D811D1124911D3D
:101FA000B29F700D811D1124911D089581E090E074
:101FB000F8940C94F10FF999FECF92BD81BDF89A77
:101FC000992780B50895262FF999FECF1FBA92BDA3
:101FD00081BD20BD0FB6F894FA9AF99A0FBE01960A
:061FE0000895F894FFCF04
:101FE600FFFFFFFF00E10000000000000A00C180C3
:101FF60081000000000000005207520752076C02E1
:1020060068026502000000002202DE01DC016C02AB
:102016006802D901B50200000000170786073807D5
:0620260031080D082D0732
:00000001FF
