:100000000C94EB000C9413010C9413010C94130149
:100010000C9413010C9413010C9413010C94130110
:100020000C9413010C94CA080C9418040C948A04C0
:100030000C9413010C9413010C9413010C941301F0
:100040000C9413010C9413010C9413010C941301E0
:100050000C9413010C9413010C9413010C9480085C
:100060000C9413010C9413010C9413010C941301C0
:100070000C9413010C9413010C9413010C941301B0
:100080000C9413010C9413010C9413010C941301A0
:100090000C9474090C9413010C9413010C94130127
:1000A0000C9413010C9413010C941301DF06E20667
:1000B000D106D506DB06030703070307E606EA06B3
:1000C000EE06F406F8060307FE0600000000250011
:1000D00028002B002E00310004040404040304054E
:1000E00002020202040302020202060606060606D5
:1000F00004040202020404040802011040804010BB
:10010000204080408008020401804020100201103D
:100110008010204040200000000200090F00000372
:100120000401000C000000000000000000000000BE
:10013000000000000000000000240027002A002D1D
:10014000003000080B000202020100090400000157
:10015000020200000524001001052401010104240D
:10016000020605240600010705810310004009046A
:100170000100020A00000007050202400000070516
:10018000830240000004030904426C696E6B696ECF
:100190006C61627300426C696E6B795461706500CA
:1001A0001201000200000040501D5E6000010102CB
:1001B000030112010002EF020140501D5E600001C8
:1001C00001020301000000002300260029002C008A
:1001D0002F00730CA40F11241FBECFEFDAE0DEBF97
:1001E000CDBF22E0AEE5B1E001C01D92A63AB20754
:1001F000E1F711E0A0E0B1E0E0E8F7E202C005902D
:100200000D92AE35B107D9F710E0CAEED0E004C0C8
:100210002197FE010E94AC0FC93ED107C9F70E9489
:10022000CB0C0C94B3130C940000CF92DF92EF929E
:10023000FF920F931F93CF93DF9300D000D0CDB7E1
:10024000DEB76217730784079507FCF489019A01EA
:100250006B017C01A9019801261B370B480B590B38
:1002600069F029833A834B835C830E94421329817E
:100270003A814B815C810E94501303C060E070E0C2
:10028000CB016C0D7D1D8E1D9F1D0F900F900F904B
:100290000F90DF91CF911F910F91FF90EF90DF9022
:1002A000CF9008950E94E812CF93DF93282F30E07B
:1002B000F901EA5EFE4F8491F901E950FF4FD491B4
:1002C000F901E852FF4FC491CC2399F081110E94AB
:1002D000C706EC2FF0E0EE0FFF1FE653FF4FA5918E
:1002E000B4918FB7F8949C91ED2FE095E923EC93AE
:1002F0008FBFDF91CF910895BC01009791F0FC0171
:1003000001900020E9F73197AF01481B590BE091AC
:100310008D01F0918E010280F381E02D8DE891E056
:10032000099480E090E008958F929F92AF92BF92DF
:100330000F931F93CF93DF93CDB7DEB7A1970FB67F
:10034000F894DEBF0FBECDBF19A2423008F44AE0D8
:100350008E010F5D1F4F842E912CA12CB12CA50175
:1003600094010E948213E62FB901CA0101501109BC
:10037000EA3014F4E05D01C0E95CD801EC93232B72
:10038000242B252B61F7C8010E947C01A1960FB692
:10039000F894DEBF0FBECDBFDF91CF911F910F91BB
:1003A000BF90AF909F908F900895FC0180918C0139
:1003B000811103C08FEF9FEF08959FB7F89482E0FB
:1003C0008093E9002091F20030E01216130614F435
:1003D00021E030E02115310559F0289884E680931A
:1003E0008B018091F10080838091F200882319F0C5
:1003F0009FBFC90108958BE68093E800F9CF8091F3
:100400000C0281110DC082E08093080284E0809389
:10041000090210920B0210920A0281E080930C02F2
:1004200088E092E0089540912302509124022091A7
:1004300021023091220242175307B4F49091E80050
:100440009570E1F39091E80092FD19C08093F1005E
:10045000809123029091240201968F739927892B12
:1004600019F48EEF8093E80080912302909124028A
:100470000196909324028093230281E0089580E006
:100480000895CF92DF92EF92FF920F931F93CF9335
:10049000DF931F92CDB7DEB7182F062FE42E862FDD
:1004A000880F8E5F99830E94130283E00E941302DB
:1004B000F12EC12E9981D92E8C2D8F19801798F489
:1004C000F601E7FE02C0849101C080810E94130200
:1004D000182F80E00E9413028123FFEFCF1ADF0A5A
:1004E0008111EACF01C081E00F90DF91CF911F9180
:1004F0000F91FF90EF90DF90CF900895DF92EF92F1
:10050000FF920F931F93CF93DF93D82E8A017B0125
:10051000E40EF51EEB01CE15DF0571F0D7FE03C02A
:10052000FE01849101C088810E94130221968111ED
:10053000F2CF8FEF9FEF01C0C801DF91CF911F91E4
:100540000F91FF90EF90DF900895615030F020916F
:10055000F100FC0120830196F8CF289884E680936F
:100560008B010895CF92DF92EF92FF920F931F932A
:10057000CF93DF936C017A018B01C0E0D0E0CE1500
:10058000DF0589F0D8016D918D01D601ED91FC91C7
:100590000190F081E02DC6010995892B11F47E01AF
:1005A00002C02196ECCFC701DF91CF911F910F912F
:1005B000FF90EF90DF90CF900895CF93DF931F923D
:1005C000CDB7DEB76983DC01ED91FC910280F38148
:1005D000E02D41E050E0BE016F5F7F4F09950F9025
:1005E000DF91CF91089583E08093E9008091F2003C
:1005F000882319F08AE38093E8000895FC0184853C
:10060000958597FD0BC09FB7F89482E08093E90031
:100610008091F2009FBF90E0019608959FB7F894F3
:1006200082E08093E9008091F2009FBF90E00895FE
:100630000F931F93CF93DF931F92CDB7DEB782E066
:10064000898342E450E063E471E080E80E947E0226
:100650000E94FF01DC0112960D911C911397011568
:10066000110569F0D801ED91FC910280F381E02D34
:10067000BE016F5F7F4FC801099597FF07C0898151
:100680000F90DF91CF911F910F910895F801008590
:100690001185E5CF8F929F92AF92BF92CF92DF925A
:1006A000EF92FF920F931F93CF93DF935C016B0147
:1006B0008A0180910B01882309F45EC080918C012E
:1006C000882309F459C080915F0180FF05C08091A3
:1006D000E00082608093E000E8018AEFF82E93E06A
:1006E000E92E2FE3822E3AE3932E209709F43DC0A2
:1006F0008FB7F894E092E9009091E80095FF06C06A
:100700009091F200282D291B922F01C090E08FBFFD
:1007100091110AC0FA94FF2079F161E070E080E065
:1007200090E00E944608E1CF292F30E0C217D3079E
:100730000CF49C2F8FB7F894E092E9002091E80028
:1007400025FF11C0292F30E0C21BD30BF6019150B9
:1007500020F041914093F100FACFC20ED31E909148
:10076000E80095FF13C08FBFC0CF5D9884E68093EB
:1007700025021016110644F081E090E0F501938304
:10078000828380E090E005C0C80103C09092E80039
:10079000EACFDF91CF911F910F91FF90EF90DF9003
:1007A000CF90BF90AF909F908F900895CF93DF939D
:1007B0001F92CDB7DEB7FC018485958597FD05C0F6
:1007C0002FEF3FEF358724870BC0CE0101960E94A3
:1007D000D501019719F4898190E002C08FEF9FEF56
:1007E0000F90DF91CF9108950F931F93CF93DF93D5
:1007F0001F92CDB7DEB78C01FC018485958597FFEC
:100800000EC0CE0101960E94D501019719F42981ED
:1008100030E002C02FEF3FEFF80135872487F80161
:10082000848595850F90DF91CF911F910F91089549
:100830001F920F920FB60F9211248F939F93809166
:10084000E1009091E100937F9093E10083FF0FC05E
:100850001092E90091E09093EB001092EC0092E38B
:100860009093ED0010928C0198E09093F00082FF3D
:1008700020C093E09093E9009091F200992319F041
:100880009AE39093E80090912502992339F0909192
:100890002502915090932502992389F190918B0123
:1008A000992339F090918B01915090938B0199236A
:1008B00041F184FF10C08091E2008E7E81608093C0
:1008C000E2008091E1008F7E8093E10080915F01E2
:1008D0008E7E806111C080FF16C08091E2008E7E06
:1008E00080618093E2008091E1008E7E8093E10040
:1008F00080915F018E7E816080935F0104C05D9A6C
:10090000CDCF289AD6CF9F918F910F900FBE0F9089
:100910001F9018951F920F920FB60F921124CF922D
:10092000DF92EF92FF920F931F932F933F934F937A
:100930005F936F937F938F939F93AF93BF93EF9347
:10094000FF93CF93DF93CDB7DEB76C97DEBFCDBFFC
:100950001092E9008091E80083FFFAC168E0CE01BF
:1009600045960E94A50282EF8093E8008D8987FF5B
:1009700005C09091E80090FFFCCF03C09EEF9093DC
:10098000E800982F907609F0C6C09E892F89188DAF
:1009900091110CC0803829F4809160018093F1009E
:1009A00002C01092F1001092F10047C1422F50E0B6
:1009B000512B913051F4811140C14130510509F062
:1009C0003CC1809160018D7F0BC0933061F4811137
:1009D00034C14130510509F030C18091600182601D
:1009E000809360012AC1953041F48091E80080FF36
:1009F000FCCF20682093E30020C1963009F05FC04F
:100A0000EB8CFC8C1092E9001092240210922302CD
:100A1000123091F510922202109221020E941803C6
:100A200099E0BE016F5F7F4FDB01E92F1D92EA95D0
:100A3000E9F799831A8391E09E8390EA98879AEF69
:100A400099872091230230912402275F3F4F3C83F6
:100A50002B838D831092E9001092240210922302BE
:100A6000F0922202E092210249E050E080E00E94F0
:100A70007E020E941803E1C0F0922202E09221025D
:100A80000E94FF01DC011296ED90FC901397E11497
:100A9000F10409F4C0C0D701ED91FC910480F58107
:100AA000E02DBE016B5E7F4FC7010995009719F0DD
:100AB0000CF0C3C0C6C0F701E084F184E8CF9730E2
:100AC00009F4BFC0983021F481E08093F100B5C0F3
:100AD000993009F0B2C0837009F0B3C0E7E3F1E0E8
:100AE00081E021E036E39081992361F08093E90071
:100AF0002093EB0091919093EC003093ED008F5F89
:100B0000873089F78EE78093EA001092EA008F8998
:100B100080938C0192C08B8D9C8D1092E900109275
:100B20002402109223029093220280932102898D45
:100B3000811156C08E899D89913A59F4813209F00C
:100B400080C047E050E064E071E080E00E947E02F7
:100B500074C0913209F075C0833289F4888D90E0B9
:100B6000982F88272F89822BA0E0B0E08093000186
:100B700090930101A0930201B09303015EC0803203
:100B800069F48091E80082FFFCCF67E084E091E0A7
:100B90000E94A5028BEF8093E80006C0823209F024
:100BA0004CC08F8980930B0180915E01882319F0DE
:100BB000EEEFFAE002C0E0E0F8E0809104019091ED
:100BC0000501A0910601B0910701803B9440A10569
:100BD000B10509F088C080910B0180FFA0C083C0DF
:100BE0000E94FF01DC0112960D911C9113970115D3
:100BF000110539F1D801ED91FC910190F081E02DC2
:100C0000BE016B5E7F4FC8010995811116C0F801C6
:100C100000851185ECCF1130C1F0133091F48F892C
:100C2000882309F455C08230E9F440E86AE085E998
:100C300091E00E944102882321F08EEF8093E8002A
:100C400087C081E28093EB0083C08B8D9C8D0897D9
:100C500011F41093200280912002811136C060EAC5
:100C600071E038C0813029F440E86BE089E891E018
:100C7000E0CF833031F70E94FF01DC011296ED9046
:100C8000FC9013978E010F5F1F4F6801E114F10470
:100C900079F0D701ED91FC910680F781E02DB80144
:100CA000C7010995080F111DF701E084F184EECF0B
:100CB000D8011C92F60101900020E9F73197BF019D
:100CC0006C197D0940E0C601B4CF62EB71E002C04F
:100CD00065E871E06115710509F4B3CFFB0144913A
:100CE00050E080E833CF0FB6F894A895809160006B
:100CF000886180936000109260000FBEA895EE3F5F
:100D00002AE0F20739F08091FE0A9091FF0A918360
:100D1000808393CF1092FF0A1092FE0A8ECFEE3F8F
:100D20008AE0F80731F0808191819093FF0A8093E7
:100D3000FE0A87E797E7918380839BE088E10FB6FF
:100D4000F894A895809360000FBE9093600075CFD3
:100D50006C960FB6F894DEBF0FBECDBFDF91CF917A
:100D6000FF91EF91BF91AF919F918F917F916F9183
:100D70005F914F913F912F911F910F91FF90EF90B5
:100D8000DF90CF900F900FBE0F901F90189590E0BE
:100D9000FC013197EF30F105B0F5EA5AFF4F0C94A2
:100DA000AC0F809180008F7703C0809180008F7D91
:100DB00080938000089580918000877FF9CF84B56B
:100DC0008F7702C084B58F7D84BD08958091900097
:100DD0008F7707C0809190008F7D03C08091900035
:100DE000877F8093900008958091C0008F7703C023
:100DF0008091C0008F7D8093C00008958091C200D3
:100E0000877F8093C2000895CF93DF9390E0FC0129
:100E1000E950FF4F2491FC01E852FF4F8491882351
:100E200061F190E0880F991FFC01EB5CFE4FC591CA
:100E3000D491FC01E653FF4FA591B491611109C013
:100E40009FB7F8948881209582238883EC912E2384
:100E50000BC0623061F49FB7F8943881822F80957F
:100E600083238883EC912E2B2C939FBF06C08FB7D2
:100E7000F894E8812E2B28838FBFDF91CF910895BE
:100E80003FB7F89480919E0290919F02A091A0029A
:100E9000B091A10226B5A89B05C02F3F19F001967D
:100EA000A11DB11D3FBFBA2FA92F982F8827820FF0
:100EB000911DA11DB11DBC01CD0142E0660F771F40
:100EC000881F991F4A95D1F7089585ED8093BC003E
:100ED0008091BC0084FDFCCF109273020895409174
:100EE0004D02262F30E0240F311D21323105DCF474
:100EF000209173022430C9F4FC0180E090E0861751
:100F000058F430914D022191DC01A55DBD4FA30F36
:100F1000B11D2C930196F3CF80914D02680F609321
:100F20004D0280E0089581E0089582E008950895DB
:100F30008FEF9FEF08958FEF9FEF089580912A0222
:100F400090E09195819591090895CF93DF9300D01A
:100F5000CDB7DEB7CB01642F49835A830E946F0758
:100F60004981842F5A81952F0F900F90DF91CF9157
:100F70000895CF93DF931F92CDB7DEB7698361E009
:100F8000CE0101960E946F0781E090E00F90DF9103
:100F9000CF910895CF93DF93EC01888599850097D1
:100FA00011F00E9450128E8187FD05C060E0DF9134
:100FB000CF910C940407DF91CF9108950F931F9365
:100FC000CF93DF93EFE1F1E08491E0E0F1E0D491A1
:100FD000E1EEF0E0C491CC23C9F081110E94C70674
:100FE000EC2FF0E0EE0FFF1FEC53FE4FA591B491F4
:100FF000EC91ED2359F00E94400760932602709314
:10100000270280932802909329023BC00E94400748
:101010000091260210912702209128023091290286
:10102000DC01CB01801B910BA20BB30B853927E0B0
:101030009207A105B10520F084E997E0A0E0B0E0B7
:101040008093870190938801A0938901B0938A01CE
:101050008091870190918801A0918901B0918A01C6
:101060008C349440A105B10560F48CE494E0A0E0D8
:10107000B0E08093870190938801A0938901B09399
:101080008A01DF91CF911F910F9108958F929F92C6
:10109000AF92BF92CF92DF92EF92FF926B017C01F1
:1010A0000E9440074B015C01C114D104E104F1042A
:1010B000F1F00E944007DC01CB0188199909AA09C7
:1010C000BB09883E9340A105B10570F321E0C21A27
:1010D000D108E108F10888EE880E83E0981EA11C73
:1010E000B11CC114D104E104F10419F7DDCFFF9064
:1010F000EF90DF90CF90BF90AF909F908F9008952A
:101100001F920F920FB60F9211242F933F938F933C
:101110009F93AF93BF9380919A0290919B02A0916D
:101120009C02B0919D023091990223E0230F2D374C
:1011300020F40196A11DB11D05C026E8230F0296DB
:10114000A11DB11D2093990280939A0290939B0256
:10115000A0939C02B0939D0280919E0290919F0269
:10116000A091A002B091A1020196A11DB11D809392
:101170009E0290939F02A093A002B093A102BF9100
:10118000AF919F918F913F912F910F900FBE0F9034
:101190001F9018951F920F920FB60F9211242F9344
:1011A0003F934F935F936F937F938F939F93AF93EF
:1011B000BF93CF93DF93EF93FF93C3B120916B0065
:1011C000DC2FD09580918301D823909182019C23BC
:1011D0008D2F892BD0918101DC27D223D823C09376
:1011E0008101D0FF0BC0E0916101F09162016C2F91
:1011F000617080916301909164010995D1FF0CC0E9
:10120000C1FB662760F9E0916501F091660180916C
:101210006701909168010995D2FF0CC0C2FB662757
:1012200060F9E0916901F0916A0180916B01909100
:101230006C010995D3FF0CC0C3FB662760F9E091F0
:101240006D01F0916E0180916F019091700109958F
:10125000D4FF0CC0C4FB662760F9E0917101F091E6
:10126000720180917301909174010995D5FF0CC0B2
:10127000C5FB662760F9E0917501F09176018091D8
:101280007701909178010995D6FF0CC0C6FB6627BF
:1012900060F9E0917901F0917A0180917B01909160
:1012A0007C010995D7FF0DC06C2F661F6627661F4E
:1012B000E0917D01F0917E0180917F01909180010C
:1012C0000995FF91EF91DF91CF91BF91AF919F91E0
:1012D0008F917F916F915F914F913F912F910F90DF
:1012E0000FBE0F901F9018951F920F920FB60F927E
:1012F00011242F933F934F935F936F937F938F931B
:101300009F93AF93BF93EF93FF938091B900887F32
:10131000803609F49CC068F5883209F45BC090F40B
:10132000803109F454C038F4882309F4F6C08830B9
:1013300009F44DC0F6C0883109F44CC0803209F47C
:101340005DC0EFC0803409F468C048F4803309F40C
:1013500055C0883309F0E5C080937202D8C080354B
:1013600009F44FC0883509F45DC0883409F0D9C04C
:10137000D6C0883909F4C7C0A8F4883709F467C013
:1013800038F4883609F463C0803709F460C0C9C0F6
:10139000883809F4B8C0803909F45FC0803809F092
:1013A000C0C05BC0803B09F486C038F4803A09F4C1
:1013B00066C0883A09F47FC0B4C0803C09F4A7C075
:1013C000883C09F4A4C0883B09F48AC0AAC0809173
:1013D000980210C09091970280919602981770F52C
:1013E000E091970281E08E0F80939702F0E0EA5837
:1013F000FD4F80818093BB0085EC86C08093720294
:101400008EC0E091970281E08E0F809397028091C9
:10141000BB00F0E0EA58FD4F8083909197028091E5
:1014200096026EC0E091970281E08E0F8093970242
:101430008091BB00F0E0EA58FD4F808380917502F7
:1014400081116DC081E08093740284EA61C083E001
:101450008093730210927102CFCF8091710280321B
:1014600008F051C0E091710281E08E0F809371020B
:101470008091BB00F0E0EF5AFD4F8083BDCF85EC3B
:101480008093BC001092730280917102803230F41C
:10149000E0917102F0E0EF5AFD4F1082609171020D
:1014A00070E0E0914F02F091500281E592E00995E1
:1014B0001092710236C084E08093730210924E0243
:1014C00010924D02E0914B02F0914C0209958091EF
:1014D0004D02811105C081E080934D0210922B02D4
:1014E000E0914E0281E08E0F80934E02F0E0E55DC8
:1014F000FD4F80818093BB0090914E0280914D0200
:10150000981708F479CF85E88093BC000AC085EC71
:101510008093BC001092730204C0109272020E9469
:101520006507FF91EF91BF91AF919F918F917F914F
:101530006F915F914F913F912F910F900FBE0F9040
:101540001F901895CF92DF92EF92FF920F931F9307
:10155000CF93DF93CDB7DEB729970FB6F894DEBFF0
:101560000FBECDBF8C010E944007D8011E96CD90C2
:10157000DD90ED90FC905197DC01CB018C199D0919
:10158000AE09BF09C297A105B10568F3F894F80147
:10159000848195819A8389830084F185E02D7F0180
:1015A0008FEFE81AF80A80818B83D8019C915296BC
:1015B000ED91FC91539754968C91992309F430C086
:1015C0009081982B9C839081809589238D838D8138
:1015D0008E8388E08F835C816D814B813F812E817A
:1015E00089819A81D701508347FD252F3A95208321
:1015F000262F39F0441F00C000006083000000C0A7
:10160000F2CF38E04D9160830000019761F7D80177
:101610005396FC93EE9352974B833F832E833AC0AD
:101620009081982B9C839081809589238D838D81D7
:10163000888788E089875C816D814B813985288521
:1016400089819A81D701508347FD252F00C000C0B2
:10165000208300C000C000C000C000C06083000044
:10166000262F3A9541F0441F000000C000C000C082
:1016700000C000C0E8CF38E04D9100C0608300C0DA
:10168000019709F7D8015396FC93EE9352974B8339
:10169000398728879A83898378940E944007F801C4
:1016A00066877787808B918B29960FB6F894DEBF7B
:1016B0000FBECDBFDF91CF911F910F91FF90EF90A3
:1016C000DF90CF9008958F929F92AF92BF92CF926A
:1016D000DF92EF92FF920F931F93CF93DF93FC0162
:1016E000828193816817790708F04CC04A01AA24C7
:1016F000BB24B82DC32ED42EE52EFF24AC2D922F63
:101700008781882361F0889E40011124B92DC89EED
:1017100060011124AD2D289FE00111249D2FD58457
:10172000C285E084F184DC1208C09B01220F331FC4
:10173000620F731F6E0D7F1D16C0660F771F660F39
:10174000771F6E0D7F1D052F112722273327EB01F1
:10175000CD0DD11D882329F0089F90011124232F3E
:1017600001C0202F28838285EB01C80FD11DB883CB
:101770008385EB01C80FD11DA8838485FB01E80F89
:10178000F11D9083DF91CF911F910F91FF90EF900A
:10179000DF90CF90BF90AF909F908F9008951F9350
:1017A000CF93DF93EC01162F8981882331F08E814E
:1017B00087FD03C060E00E9404071E83898188239F
:1017C00039F061E0812F0E940407812F0E945401AB
:1017D000812F90E0FC01E852FF4FE491F0E0EE0F22
:1017E000FF1FE653FF4F259134913B8B2A8BFC0161
:1017F000E950FF4FE491EC8BDF91CF911F91089559
:10180000EF92FF920F931F93CF93DF93EC017B0135
:1018100088859985009711F00E9450129D858A85D0
:10182000981719F084E090E002C083E090E08E9D6C
:1018300080018F9D100D9E9D100D11241D830C8322
:10184000C8010E94BB1199878887009741F0A801C1
:1018500060E070E00E94ED12FB82EA8204C01D820B
:101860001C821B821A82DF91CF911F910F91FF90F2
:10187000EF900895CF93DF93EC018E8187FD06C032
:1018800061E00E9404078E810E94540181E08983F7
:10189000DF91CF9108958AE491E00E947C016091EC
:1018A000860170E080E090E04AE00E94940185E4C7
:1018B00091E00E947C016091850170E080E090E001
:1018C0004AE00E94940185E491E00E947C016091CD
:1018D000840170E080E090E04AE00E9494018BE592
:1018E00091E00C947C01CF93DF93EDE8F1E013825B
:1018F000128288EE93E0A0E0B0E084839583A68313
:10190000B7832AE131E0318320832FEF3FEF358722
:101910002487E4E1F2E01382128284839583A68314
:10192000B7838AE291E091838083E2EFF1E0118254
:1019300017821186108616861786108A118AC1E0D2
:10194000C587C2871386D2E0D487C0836CE370E07A
:10195000CF010E94000C6DE082EF91E00E94CF0B5E
:10196000EDEDF1E01182178211861086168617863A
:10197000108A118AC587C2871386D487C0836CE317
:1019800070E0CF010E94000C66E08DED91E0DF91E8
:10199000CF910C94CF0B789484B5826084BD84B5CC
:1019A000816084BD85B5826085BD85B5816085BD5A
:1019B00080916E00816080936E0010928100809112
:1019C000810082608093810080918100816080939A
:1019D00081008091800081608093800080919100DF
:1019E000826080939100809191008160809391004A
:1019F000809190008160809390008091C10084600C
:101A00008093C1008091C10082608093C100809169
:101A1000C10081608093C1008091C3008160809388
:101A2000C3008091C00082608093C0008091C2009A
:101A300081608093C20080917A00846080937A00F4
:101A400080917A00826080937A0080917A00816030
:101A500080937A0080917A00806880937A00109257
:101A60008C011092600110925F018091D70081601B
:101A70008093D70080EA8093D80089B5806189BDC2
:101A800089B5826089BD09B400FEFDCF61E070E0D8
:101A900080E090E00E9446088091D8008F7C8061B1
:101AA0008093D8008091E000807F8093E000809157
:101AB000E1008E7E8093E1008DE08093E200559AF4
:101AC000209AEEEFFFE7859194918B3F9C4D19F49E
:101AD00081E080935E018FEF9FEF90939A01809356
:101AE000990162E089E00E9404072FB7F8948EED17
:101AF00097E090937601809375011092780110928F
:101B000077018091820180628093820180918301BC
:101B100080628093830180916B00806280936B0070
:101B20008091680081608093680083B1982F9072E3
:101B3000809181018F7D892B809381012FBF82EF5E
:101B400091E00E943A0C8DED91E00E943A0C609178
:101B50008701709188018091890190918A016115B6
:101B600071058105910511F00E944713F7E09F2E42
:101B7000ACE0AA2EBFE7CB2ED12CE12CF12C00E05B
:101B800010E0BB24BA946091870170918801809124
:101B9000890190918A010E94C01020E030E849E854
:101BA00054E40E94B20F20E030E042E554E40E9489
:101BB0001F1020E030E048EC52E40E944E110E94D9
:101BC0009110609307028DE391E00E947C01609187
:101BD000070270E080E090E04AE00E94940187E410
:101BE00091E00E947C01809107028A30B8F5109242
:101BF000860110928501109284010E944B0CC0E076
:101C0000D0E08091860140908501512C612C712C8F
:101C1000762C652C542C4424682A80918401482A0F
:101C2000A3019201BE0182EF91E00E94630BA30128
:101C30009201BE018DED91E00E94630B2196CC33A1
:101C4000D105F9F68091FA019091FB01892B09F4F5
:101C500064C182EF91E00E94A20A5FC1883208F05D
:101C600079C08A5E880F880F880F809386010E9452
:101C70004B0CC0E0D0E02091860126952695269554
:101C800030E040E050E060E070E0CB010E941501E0
:101C9000662E2091860126952695269530E040E017
:101CA00050E060E070E0CB010E9415017090860169
:101CB000262D30E040E050E04729DC01CB01992798
:101CC000AA27BB27BA2FA92F982F8827282B392B73
:101CD0004A2B5B2BBE0182EF91E00E94630B272D04
:101CE00026952695269530E040E050E060E070E0D3
:101CF000CB010E941501762E20918601269526950E
:101D0000269530E040E050E060E070E0CB010E94BA
:101D10001501E0918601472C512C612C712C6E2A03
:101D2000DC01CB019927AA27BB27BA2FA92F982F0F
:101D30008827A3019201282B392B4A2B5B2BBE014C
:101D40008DED91E00E94630B2196CC33D10509F013
:101D500092CF78CF863408F048C0880F80558093A2
:101D600085010E944B0CC0E0D0E0209185012695B2
:101D700030E040E050E060E070E0CB010E941501EF
:101D800070908501872D90E0A0E0B0E0BA2FA92FD8
:101D9000982F8827AF6F9C01AD01262BBE0182EFE3
:101DA00091E00E94630B272D269530E040E050E043
:101DB00060E070E0CB010E94150120918501822F27
:101DC00090E0A0E0B0E0BA2FA92F982F8827AF6F3E
:101DD0009C01AD01262BBE018DED91E00E94630BAD
:101DE0002196CC33D10509F62DCF8A3508F069C08C
:101DF00090E09C0125543109299D202D11242A5B56
:101E000020938501865491098A9D802D1124809309
:101E100084010E944B0CC0E0D0E04090840170909F
:101E200085010E944213242C312C412C512CA201FB
:101E30009101372929013A01A70196010E94501307
:101E4000DC01CB0180589F4FAF4FBF4FDC0199277A
:101E50008827A3019201282B392B4A2B5B2BBE012B
:101E600082EF91E00E94630B4090840170908501A5
:101E70000E944213242C312C412C512CA20191019F
:101E8000372929013A01A70196010E945013DC016C
:101E9000CB0180589F4FAF4FBF4FDC019927882758
:101EA000A3019201282B392B4A2B5B2BBE018DED10
:101EB00091E00E94630B2196CC33D10509F0ADCFA0
:101EC000C1CEB0928601B0928501B09284010E9489
:101ED0004B0CC0E0D0E08091860140908501512CF0
:101EE000612C712C762C652C542C4424682A80910A
:101EF0008401482AA3019201BE0182EF91E00E9471
:101F0000630BA3019201BE018DED91E00E94630B72
:101F10002196CC33D105F9F695CE8091E5019091CB
:101F2000E601892B21F08DED91E00E94A20A62E387
:101F300070E080E090E00E9446080115110509F468
:101F400022CE0E9400001FCE8DED91E00E94CA07B4
:101F500082EF91E00C94CA07EE0FFF1F0590F491F9
:101F6000E02D09945058BB27AA270E94CA0F0C9451
:101F700014110E94061138F00E940D1120F039F45E
:101F80009F3F19F426F40C9403110EF4E095E7FB3F
:101F90000C94FD10E92F0E94251158F3BA1762071F
:101FA00073078407950720F079F4A6F50C94471180
:101FB0000EF4E0950B2EBA2FA02D0B01B901900164
:101FC0000C01CA01A0011124FF27591B99F0593FA8
:101FD00050F4503E68F11A16F040A22F232F342FF0
:101FE0004427585FF3CF469537952795A795F0403E
:101FF0005395C9F77EF41F16BA0B620B730B840B53
:10200000BAF09150A1F0FF0FBB1F661F771F881F0A
:10201000C2F70EC0BA0F621F731F841F48F4879562
:1020200077956795B795F7959E3F08F0B0CF939554
:10203000880F08F09927EE0F9795879508950E94CD
:1020400033100C9414110E940D1158F00E940611C7
:1020500040F029F45F3F29F00C94FD1051110C94CD
:1020600048110C9403110E94251168F39923B1F3D0
:10207000552391F3951B550BBB27AA2762177307AE
:10208000840738F09F5F5F4F220F331F441FAA1F42
:10209000A9F335D00E2E3AF0E0E832D091505040FE
:1020A000E695001CCAF72BD0FE2F29D0660F771FAC
:1020B000881FBB1F261737074807AB07B0E809F092
:1020C000BB0B802DBF01FF2793585F4F3AF09E3F17
:1020D000510578F00C94FD100C9448115F3FE4F327
:1020E000983ED4F3869577956795B795F7959F5F5A
:1020F000C9F7880F911D9695879597F90895E1E0A6
:10210000660F771F881FBB1F621773078407BA0704
:1021100020F0621B730B840BBA0BEE1F88F7E0955F
:1021200008950E942D1188F09F5798F0B92F992794
:10213000B751B0F0E1F0660F771F881F991F1AF0B2
:10214000BA95C9F714C0B13091F00E944711B1E0BF
:1021500008950C944711672F782F8827B85F39F0BE
:10216000B93FCCF3869577956795B395D9F73EF44B
:1021700090958095709561957F4F8F4F9F4F0895F3
:10218000E89409C097FB3EF4909580957095619511
:102190007F4F8F4F9F4F9923A9F0F92F96E9BB27C7
:1021A0009395F695879577956795B795F111F8CF43
:1021B000FAF4BB0F11F460FF1BC06F5F7F4F8F4FAE
:1021C0009F4F16C0882311F096E911C0772321F0A4
:1021D0009EE8872F762F05C0662371F096E8862F3C
:1021E00070E060E02AF09A95660F771F881FDAF793
:1021F000880F9695879597F9089597F99F6780E8D6
:1022000070E060E008959FEF80EC089500240A9448
:102210001616170618060906089500240A941216C1
:102220001306140605060895092E0394000C11F4F4
:10223000882352F0BB0F40F4BF2B11F460FF04C0A1
:102240006F5F7F4F8F4F9F4F089557FD9058440FFA
:10225000551F59F05F3F71F04795880F97FB991F05
:1022600061F09F3F79F087950895121613061406C2
:10227000551FF2CF4695F1DF08C01616170618064F
:10228000991FF1CF86957105610508940895E8942A
:10229000BB2766277727CB0197F908950E94611124
:1022A0000C9414110E94061138F00E940D1120F0B8
:1022B000952311F00C94FD100C94031111240C942F
:1022C00048110E94251170F3959FC1F3950F50E0BE
:1022D000551F629FF001729FBB27F00DB11D639FD8
:1022E000AA27F00DB11DAA1F649F6627B00DA11D7E
:1022F000661F829F2227B00DA11D621F739FB00D24
:10230000A11D621F839FA00D611D221F749F332793
:10231000A00D611D231F849F600D211D822F762F2C
:102320006A2F11249F5750409AF0F1F088234AF009
:10233000EE0FFF1FBB1F661F771F881F9150504075
:10234000A9F79E3F510580F00C94FD100C944811A4
:102350005F3FE4F3983ED4F3869577956795B795FC
:10236000F795E7959F5FC1F7FE2B880F911D969516
:10237000879597F90895CF93DF938230910510F4F4
:1023800082E090E0E091A402F091A50220E030E02C
:10239000C0E0D0E0309711F14081518148175907D2
:1023A000C0F04817590761F482819381209719F092
:1023B0009B838A832BC09093A5028093A40226C09E
:1023C0002115310519F04217530718F49A01BE017F
:1023D000DF01EF010280F381E02DDCCF2115310513
:1023E00009F1281B390B2430310590F412968D9198
:1023F0009C9113976115710521F0FB0193838283F2
:1024000004C09093A5028093A402FD01329644C0BB
:10241000FD01E20FF31F81939193225031092D9317
:102420003C933AC02091A2023091A302232B41F4A5
:1024300020910E0130910F013093A3022093A2024C
:1024400020910C0130910D012115310541F42DB77A
:102450003EB74091100150911101241B350BE091C2
:10246000A202F091A302E217F307A0F42E1B3F0B88
:102470002817390778F0AC014E5F5F4F24173507F6
:1024800048F04E0F5F1F5093A3024093A202819326
:10249000919302C0E0E0F0E0CF01DF91CF91089589
:1024A0000F931F93CF93DF93009709F48CC0FC0127
:1024B0003297138212820091A4021091A502011595
:1024C000110581F420813181820F931F2091A20296
:1024D0003091A3022817390779F5F093A302E0930E
:1024E000A20271C0D80140E050E0AE17BF0750F41F
:1024F00012962D913C911397AD012115310509F1EB
:10250000D901F3CF9D01DA01338322836081718188
:10251000860F971F8217930769F4EC012881398190
:10252000260F371F2E5F3F4F318320838A819B8187
:1025300093838283452B29F4F093A502E093A402B0
:1025400042C01396FC93EE931297ED014991599175
:102550009E01240F351FE217F30771F480819181EA
:10256000840F951F029611969C938E93828193817E
:1025700013969C938E931297E0E0F0E0D8011296A8
:102580008D919C911397009719F0F8018C01F6CF6B
:102590008D919C9198012E5F3F4F820F931F209148
:1025A000A2023091A3022817390769F4309729F461
:1025B0001092A5021092A40202C0138212821093FC
:1025C000A3020093A202DF91CF911F910F91089572
:1025D00081E090E0F8940C94B313DC0101C06D939A
:1025E00041505040E0F708958F929F92AF92BF9272
:1025F000CF92DF92EF92FF92CF93DF93EC0168814D
:1026000079818A819B81611571058105910521F48C
:1026100064E279ED8BE597E02DE133EF41E050E0A6
:102620000E94501349015A019B01AC01A7EAB1E491
:102630000E946F136B017C01ACEEB4EFA501940115
:102640000E947D13DC01CB018C0D9D1DAE1DBF1DB5
:10265000B7FF03C00197A109B04888839983AA8373
:10266000BB83BC01CD019F77DF91CF91FF90EF90AD
:10267000DF90CF90BF90AF909F908F9008950E9471
:10268000F412089582E191E00E94F412089560939B
:102690001201709313018093140190931501089512
:1026A000052E97FB1EF400940E94671357FD07D078
:1026B0000E94821307FC03D04EF40C9467135095CC
:1026C0004095309521953F4F4F4F5F4F089590951E
:1026D0008095709561957F4F8F4F9F4F08950E9411
:1026E000A413A59F900DB49F900DA49F800D911DE4
:1026F00011240895B7FF0C946F130E946F13821B6F
:10270000930B0895A1E21A2EAA1BBB1BFD010DC05D
:10271000AA1FBB1FEE1FFF1FA217B307E407F50791
:1027200020F0A21BB30BE40BF50B661F771F881F6D
:10273000991F1A9469F760957095809590959B0103
:10274000AC01BD01CF010895A29FB001B39FC001AC
:10275000A39F700D811D1124911DB29F700D811DCD
:102760001124911D089510E0CAEED0E004C0FE01CE
:102770000E94AC0F2196CB3ED107C9F7F894FFCF4A
:10278000FFFFFFFF00E10000000000000000A602C4
:1027900080000100000000000000DD024A03FE028C
:1027A000D603F403F30200000000B907A5079E0753
:1027B0009B079807970700C180810000005468724A
:1027C0006F74746C653A002520007265642F67721F
:0E27D00065656E2F626C75653A20000D0A007B
:00000001FF
